:020000040800F2
:1000000000500020D92400089D0300089F03000829
:10001000A1030008A3030008A503000800000000D6
:10002000000000000000000000000000011B0008AC
:10003000A703000800000000A11B0008A903000896
:100040002125000821250008212500082125000878
:100050002125000821250008212500082125000868
:100060002125000821250008212500082125000858
:100070002125000821250008212500082125000848
:100080002125000821250008212500082125000838
:100090002125000821250008212500082125000828
:1000A0002125000821250008212500082125000818
:1000B0002125000821250008B1030008212500089A
:1000C00021250008212500082125000821250008F8
:1000D00021250008C103000821250008212500086A
:1000E0002125000821250008212500080000000026
:1000F0000000000000000000000000000000000000
:0C01000000000000000000005FF808F1A3
:1001100010B5054C237833B9044B13B10448AFF341
:1001200000800123237010BD0C000020000000009F
:100130006C2500080C4B43B10C4810B50C49AFF3CB
:1001400000800C48036823B910BD0A48036833B91E
:100150007047094B002BF7D0BDE810401847064BFD
:10016000002BF5D0184700BF000000006C250008E8
:10017000100000200C0000200000000008B5044A18
:10018000137801331370642002F095F9F7E700BF8C
:10019000BC0D002008B5012002F08DF9FBE700003E
:1001A00010B588B0184B9A6942F020029A619A699A
:1001B00002F020020192019A9A6942F008029A61C3
:1001C0009A6902F008020292029A9A6942F00402C5
:1001D0009A619B6903F004030393039B0B4C012278
:1001E0004FF4E041204601F043FA4FF4E04304931A
:1001F00001230593002306930223079304A92046B5
:1002000001F040F908B010BD00100240000C0140A0
:1002100008B50268034B9A4200D008BD00F0E4FD27
:10022000FBE700BF00080040FEE7000008B50B48F0
:100230000B4B03604FF4E133436000238360C360E2
:1002400003610C2242618361C36100F095FC00B937
:1002500008BD4FF482710348FFF7E6FFC00D002090
:1002600000380140C025000808B50C480C4B03605D
:100270001023436000238360C36003614361836193
:10028000C361036243628362C36200F093F900B901
:1002900008BDF1210348FFF7C7FF00BF780D00201C
:1002A00000640040C025000800B591B0012206920C
:1002B0004FF480330793002108910A9202220D9295
:1002C0000E934FF4E0130F9306A800F0B5FD08BBA2
:1002D0000F23019302210291002303934FF48062C4
:1002E0000492059301A800F0CDFFB8B901F086F89B
:1002F0000C4BA3FB0030800901F060FA042001F0F0
:1003000073FA00220F214FF0FF3001F019FA11B0FB
:100310005DF804FBC2210448FFF786FFD0210248A4
:10032000FFF782FFD34D6210C025000800B58BB0E7
:1003300000F048FDFFF7B8FFFFF732FFFFF776FF49
:10034000FFF792FF114C05AD26460FCE0FC533685F
:100350002B60002105A802F094F80D4B18606D4643
:1003600014340FCC0FC523682B600021684602F0BF
:1003700088F8084B186002F07FF84FF48051064867
:1003800001F07CF9642002F096F8F6E78425000875
:10039000000E0020740D0020000C01407047FEE7A5
:1003A000FEE7FEE7FEE7704708B502F08DF808BDEE
:1003B00008B5024800F0B0F908BD00BF040E0020E7
:1003C00008B5024800F066FC08BD00BFC00D002063
:1003D00000B583B0244B9A6942F001029A619A6990
:1003E00002F001020092009ADA6942F08052DA616A
:1003F000DB6903F080530193019B032001F08EF928
:10040000002211466FF00B0001F09AF9002211460C
:100410006FF00A0001F094F9002211466FF0090014
:1004200001F08EF9002211466FF0040001F088F906
:10043000002211466FF0030001F082F900220F2123
:100440006FF0010001F07CF900220F214FF0FF3026
:1004500001F076F9054A536823F0E06343F0007336
:10046000536003B05DF804FB00100240000001403F
:100470000268144B9A4200D0704710B586B003F55D
:10048000D633DA6942F00072DA61DB6903F0007397
:100490000193019B4FF400630293002303930493A1
:1004A000094C02A9204600F0EDFF4FF4805302935F
:1004B000022303930323059302A9204600F0E2FFE1
:1004C00006B010BD00640040000801400268184BEF
:1004D0009A4200D0704730B587B003F558439A6907
:1004E00042F480429A619B6903F480430193019B2B
:1004F0004FF40073029302230393032305930D4DDE
:1005000002A9284600F0BEFF4FF480630293002446
:100510000394049402A9284600F0B4FF2246052162
:10052000252001F00DF9252001F03CF907B030BD80
:10053000003801400008014000B589B000220146A2
:100540001E2001F0FDF81E2001F02CF9154BDA6990
:1005500042F00402DA61DB6903F004030193019BBA
:1005600002A903A800F070FF00F04EFF43000E4800
:10057000A0FB03239B0C013B0C480D4A026040F298
:10058000E732C260436000230361836000F0BEF97C
:1005900018B1012009B05DF804FB044800F0ACF884
:1005A000F8E700BF0010024083DE1B43040E00206A
:1005B00000080040002800F09C8038B5044690F800
:1005C0003C3003B3022384F83C302268136823F0E4
:1005D000020313602268136843F00103136000F004
:1005E0000FFC054623685A6812F0010F10D100F085
:1005F00007FC401B0A28F5D9032084F83C0000239F
:1006000084F83D3038BD80F83D30FFF731FFD9E741
:100610005A6812F0010F5DD0A269012A43D000226E
:10062000E169012941D022F04002216A01293FD02D
:1006300022F02002616A01293DD022F01002A16A55
:1006400001293BD022F00802E16A012939D022F0C9
:100650000402196821F0FC010A431A602168A368AA
:10066000E268134322691343626913436268013AE3
:100670001343CB612268136823F00103136000F079
:10068000BFFB054623685A6812F0010F1CD000F02A
:10069000B7FB401B0A28F5D9032084F83C0000234F
:1006A00084F83D3038BD8022BAE742F04002BCE712
:1006B00042F02002BEE742F01002C0E742F008021A
:1006C000C2E742F00402C4E75B6813F0010F08D0F0
:1006D000002300E0002333B9042384F83C300120D8
:1006E00038BD0123F7E700202064012384F83C3063
:1006F00038BD0120704770470268D36843F001039A
:10070000D3600268136843F0010313600020704750
:10071000704770477047704710B5044603681A6900
:1007200012F0020F11D0DA6812F0020F0DD06FF044
:1007300002021A610123037703689B6913F0030F18
:1007400070D0FFF7E6FF0023237723681A6912F0C1
:10075000040F12D0DA6812F0040F0ED06FF004020A
:100760001A610223237723689B6913F4407F5FD0CB
:100770002046FFF7CEFF0023237723681A6912F083
:10078000080F12D0DA6812F0080F0ED06FF00802CE
:100790001A61042323772368DB6913F0030F4ED01B
:1007A0002046FFF7B6FF0023237723681A6912F06B
:1007B000100F12D0DA6812F0100F0ED06FF0100286
:1007C0001A61082323772368DB6913F4407F3DD047
:1007D0002046FFF79EFF0023237723681A6912F053
:1007E000010F03D0DA6812F0010F36D123681A69BD
:1007F00012F0800F03D0DA6812F0800F34D1236832
:100800001A6912F0400F03D0DA6812F0400F32D1AB
:1008100023681A6912F0200F03D0DA6812F0200F53
:1008200030D110BDFFF774FF2046FFF773FF8AE752
:100830002046FFF76DFF2046FFF76CFF9BE7204641
:10084000FFF766FF2046FFF765FFACE72046FFF79E
:100850005FFF2046FFF75EFFBDE76FF001021A6100
:100860002046FFF7D5FCC1E76FF080021A612046F1
:1008700000F066F8C3E76FF040021A612046FFF708
:100880004AFFC5E76FF020021A61204600F057F8D2
:10089000C7E7000003681C4A904227D0B0F1804FA0
:1008A00024D0A2F59432904220D002F5806290428A
:1008B0001CD0154A90421ED0B0F1804F1BD0A2F53B
:1008C0009432904217D002F58062904213D023F008
:1008D00080034A69134303608B68C3620B688362B9
:1008E000094B98420CD001234361704723F07003F9
:1008F0004A681343DDE723F44073CA681343E6E70D
:100900000B690363EFE700BF002C0140A8B110B5ED
:10091000044690F83D305BB1022384F83D30211D40
:100920002068FFF7B7FF012384F83D30002010BD99
:1009300080F83C30FFF7DFFEEEE70120704770479C
:1009400070470268D36823F49073D36002685369D8
:1009500023F001035361202380F83A30704790F868
:100960003930DBB2212B01D0022070478368B3F508
:10097000805F17D00268036A591C01621B785360BC
:10098000C38C9BB2013B9BB2C384DBB90268D368C2
:1009900023F08003D3600268D36843F04003D36040
:1009A00000207047036A02681B88C3F30803536082
:1009B00003691BB9036A02330362E1E7036A013387
:1009C0000362DDE7002070472DE9F0470546026825
:1009D000136923F44053C1680B43136183680269B0
:1009E0001343426913430168CA6822F4B05222F0EB
:1009F0000C021343CB600268536923F4407381698E
:100A00000B435361D0F80080594B984557D000F004
:100A1000FBFC00EB800000EB80006C68A400B0FBE6
:100A2000F4F4544FA7FB04346409260100F0ECFCF5
:100A300000EB800000EB80006C68A400B0FBF4FACF
:100A400000F0E2FC00EB800000EB80006C68A4008A
:100A5000B0FBF4F4A7FB043464094FF0640909FB0C
:100A600014A424013234A7FB0434640904F0F00414
:100A7000344400F0C9FC00EB800000EB80006E689D
:100A8000B600B0FBF6F600F0BFFC00EB800000EB18
:100A900080006B689B00B0FBF3F0A7FB00304009BF
:100AA00009FB10694FEA091909F13209A7FB093757
:100AB000C7F343172744C8F80870BDE8F08700F073
:100AC000B3FC00EB800000EB80006C68A400B0FB7E
:100AD000F4F4284FA7FB04346409260100F0A4FCB9
:100AE00000EB800000EB80006C68A400B0FBF4FA1F
:100AF00000F09AFC00EB800000EB80006C68A40022
:100B0000B0FBF4F4A7FB043464094FF0640909FB5B
:100B100014A424013234A7FB0434640904F0F00463
:100B2000344400F081FC00EB800000EB80006E6834
:100B3000B600B0FBF6F600F077FC00EB800000EBAF
:100B400080006B689B00B0FBF3F3A7FB03235B09FA
:100B500009FB13694FEA091909F13209A7FB0937A3
:100B6000C7F343172744C8F80870BDE8F08700BFF3
:100B7000003801401F85EB5158B310B5044690F87A
:100B800039300BB3242384F839302268D36823F436
:100B90000053D3602046FFF717FF2268136923F440
:100BA000904313612268536923F02A03536122683A
:100BB000D36843F40053D3600020E063202384F81B
:100BC000393084F83A3010BD80F83830FFF77EFCB9
:100BD000D8E701207047704708B50168CB6823F05B
:100BE0004003CB60202380F83930FFF7F4FF00206A
:100BF00008BD704708B590F83A30DBB2222B01D01F
:100C0000022008BD8368B3F5805F0FD003690BBB7A
:100C1000836A5A1C8262026852681A70C38D9BB242
:100C2000013B9BB2C385F3B1002008BD826A036912
:100C300043B903685B68C3F308031380836A023314
:100C40008362EBE703685B68DBB21380836A01337E
:100C50008362E3E7826A531C836203685B6803F084
:100C60007F031370DAE70268D36823F02003D360B0
:100C70000268D36823F48073D3600268536923F059
:100C800001035361202380F83A30FFF7B2FF0020C0
:100C900008BD704710B5044602681368D1685269F0
:100CA00013F00F0005D113F0200F02D011F0200F28
:100CB00053D1002867D012F0010202D111F4907FC5
:100CC00061D013F0010F06D011F4807F03D0E06BE8
:100CD00040F00100E06313F0040F04D01AB1E06BA0
:100CE00040F00200E06313F0020F04D01AB1E06B91
:100CF00040F00400E06313F0080F04D01AB1E26B77
:100D000042F00802E263E26B002A48D013F0200FA1
:100D100002D011F0200F24D123685B6903F0400357
:100D2000E26B12F0080F00D13BB32046FFF709FE3B
:100D300023685A6912F0400F1BD05A6922F0400212
:100D40005A61636B8BB11A4A5A63606B00F09AFC6C
:100D500028B3606B436B984710BD2046FFF74AFFEE
:100D600010BD2046FFF746FFD6E72046FFF791FF6C
:100D700010BD2046FFF78DFF10BD2046FFF789FF0D
:100D80000023E36310BD13F0800F02D011F0800F39
:100D900006D113F0400F02D011F0400F04D110BD66
:100DA0002046FFF7DCFD10BD2046FFF715FFF6E7F4
:100DB000B50D000808B5406A0023C385C384FFF75A
:100DC00068FF08BD08B5074A136843F010031360B5
:100DD000032000F0A3FC0020FFF7AEFBFFF7F8FABA
:100DE000002008BD00200240034A1168034B1B7815
:100DF0000B441360704700BF440E00200000002029
:100E0000014B1868704700BF440E002082B0084BA9
:100E10001B68084AA2FB03235B0A00FB03F0019056
:100E200000BF019B5A1E0192002BF9D102B07047FE
:100E300004000020D34D621070B582B004460368F0
:100E400013F0010F3DD0AC4B5B6803F00C03042B97
:100E50002ED0A94B5B6803F00C03082B23D06368EA
:100E6000B3F5803F51D0002B55D103F1804303F5FA
:100E700004331A6822F480321A601A6822F480223D
:100E80001A606368002B60D0FFF7BAFF05469A4BE3
:100E90001B6813F4003F14D1FFF7B2FF401B642816
:100EA000F5D90320AFE1944B5B6813F4803FD6D0B3
:100EB000914B1B6813F4003F03D06368002B00F0D4
:100EC0009F81236813F0020F65D08B4B5B6813F092
:100ED0000C0F4ED0884B5B6803F00C03082B43D0FB
:100EE0002369002B79D00122844B1A60FFF788FF19
:100EF0000546814B1B6813F0020F65D1FFF780FF99
:100F0000401B0228F5D903207DE17B4A136843F496
:100F100080331360B5E7B3F5A02F09D0764B1A687C
:100F200022F480321A601A6822F480221A60A8E73C
:100F300003F18043A3F53C331A6842F480221A601F
:100F40001A6842F480321A609BE7FFF759FF0546A2
:100F5000694B1B6813F4003FB3D0FFF751FF401BF0
:100F60006428F5D903204EE1634B5B6813F4803F9E
:100F7000B6D1614B1B6813F0020F04D02369012B1B
:100F800001D001203FE15C4A136823F0F803616956
:100F900043EAC1031360236813F0080F32D0A3693A
:100FA000002B6ED00122564B1A60FFF729FF054631
:100FB000514B5B6A13F0020F21D1FFF721FF401B59
:100FC0000228F5D903201EE14B4A136823F0F803E9
:100FD000616943EAC1031360DDE70022474B1A60F1
:100FE000FFF70EFF0546444B1B6813F0020FD2D0EB
:100FF000FFF706FF401B0228F5D9032003E101207B
:10100000FFF704FF236813F0040F00F099803A4BB8
:10101000DB6913F0805F46D1374BDA6942F08052CA
:10102000DA61DB6903F080530193019B0125354BA5
:101030001B6813F4807F38D0E368012B49D0002B64
:101040004DD103F1804303F504331A6A22F0010203
:101050001A621A6A22F004021A62E368002B5DD059
:10106000FFF7CEFE0646244B1B6A13F0020F66D133
:10107000FFF7C6FE801B41F288339842F3D9032064
:10108000C1E000221E4B1A60FFF7BAFE05461A4B5C
:101090005B6A13F0020FB5D0FFF7B2FE401B0228C7
:1010A000F5D90320AFE00025C1E7164A136843F4E1
:1010B00080731360FFF7A4FE0646124B1B6813F4FF
:1010C000807FB9D1FFF79CFE801B6428F5D90320EF
:1010D00099E0094A136A43F001031362BDE7052B47
:1010E00012D0054B1A6A22F001021A621A6A22F023
:1010F00004021A62B1E700BF001002400000424241
:101100008004424200700040414B1A6A42F00402DF
:101110001A621A6A42F001021A629EE7FFF770FE35
:1011200006463B4B1B6A13F0020F08D0FFF768FE20
:10113000801B41F288339842F3D9032063E0E5B97C
:10114000E369002B5ED0324A526802F00C02082A92
:101150005BD0022B17D000222E4B1A60FFF750FEF7
:1011600004462B4B1B6813F0007F47D0FFF748FE67
:10117000001B0228F5D9032045E0254AD36923F056
:101180008053D361DCE70022224B1A60FFF738FE60
:1011900005461F4B1B6813F0007F06D0FFF730FE9B
:1011A000401B0228F5D903202DE0236AB3F5803FC8
:1011B0001AD017494B6823F47413226A606A0243F9
:1011C00013434B600122134B1A60FFF719FE0446CC
:1011D0000F4B1B6813F0007F0ED1FFF711FE001BB1
:1011E0000228F5D903200EE0094A536823F400339E
:1011F000A1680B435360DCE7002004E0002002E01C
:10120000012000E0002002B070BD0120FBE700BF1C
:10121000001002406000424210B586B0154C94E8C0
:101220000F000DF1180E0EE90F00238AADF80430FF
:10123000114B5B6803F00C02082A18D1C3F38342F8
:10124000724412F8102C13F4803F03D10B4800FBBA
:1012500002F00DE0084B5B68C3F34043734413F89E
:10126000143C074800FB02F0B0FBF3F000E0044838
:1012700006B010BDAC2500080010024000093D007A
:1012800000127A00594B1B6803F007038B420CD203
:10129000564A136823F007030B431360136803F0E7
:1012A0000703994201D00120704770B5036813F01D
:1012B000020F06D04E4A536823F0F003846823439C
:1012C00053600D460446036813F0010F52D0436883
:1012D000012B23D0022B28D0454A126812F0020FAE
:1012E00000F0828042494A6822F0030213434B60B7
:1012F000FFF786FD06466368012B1DD0022B2AD01E
:101300003B4B5B6813F00C0F34D0FFF779FD801B6B
:1013100041F288339842F3D9032070BD344A1268F1
:1013200012F4003FDED1012070BD314A126812F084
:10133000007FD7D1012070BD2D4B5B6803F00C03FB
:10134000042B17D0FFF75CFD801B41F288339842D5
:10135000F2D9032070BD264B5B6803F00C03082B09
:1013600008D0FFF74DFD801B41F288339842F2D937
:10137000032070BD1D4B1B6803F007039D420CD278
:101380001A4A136823F007032B431360136803F012
:1013900007039D4201D0012070BD236813F0040FA4
:1013A00006D0134A536823F4E063E1680B435360AB
:1013B000236813F0080F07D00D4A536823F46053D5
:1013C000216943EAC1035360FFF726FF084B5B68BE
:1013D000C3F30313074AD35CD840074B18600020BF
:1013E000FFF7AAF8002070BD012070BD0020024068
:1013F00000100240DC25000804000020014B1868A2
:10140000704700BF0400002008B5FFF7F7FF044B4A
:101410005B68C3F30223034AD35CD84008BD00BF16
:1014200000100240EC25000808B5FFF7E7FF044B69
:101430005B68C3F3C223034AD35CD84008BD00BF36
:1014400000100240EC2500080F2303600B4B5A6884
:1014500002F0030242605A6802F0F00282605A68A9
:1014600002F4E062C2605B68DB0803F4E0630361DE
:10147000034B1B6803F007030B607047001002402A
:1014800000200240F0B583B00026344671E0002D04
:1014900000F0A180012D00D1CE68FF2B00F2AF80BB
:1014A0008646FF2B00F2AE80A500DEF800200F2755
:1014B000AF4022EA070206FA05F52A43CEF80020DB
:1014C0004A6812F0805F53D0634A956945F0010580
:1014D0009561926902F001020192019AA508AF1C80
:1014E0005E4A52F8272004F00307BF004FF00F0EAA
:1014F0000EFA07FE22EA0E02DFF870E1704500F0F6
:1015000088800EF5806E704500F086800EF5806E46
:10151000704500F084800EF5806E704576D04FF0F7
:10152000040E0EFA07F73A4302354C4F47F82520D0
:101530004A6812F4803F75D0494D2A681A432A60E0
:101540004A6812F4003F73D0454D6A681A436A60D6
:101550004A6812F4801F71D0414DAA681A43AA60EC
:101560004A6812F4001F6FD03D4DEA681343EB60E8
:1015700001340F2C6ED80122A2400B6813409A420E
:10158000F6D14D68122D30D00BD8022D2AD07FF61F
:101590007EAF032D2FD0112D7FF47FAFCE680436A0
:1015A0007BE7304FBD4216D00CD92F4FBD4212D031
:1015B00007F58037BD420ED0A7F58017BD427FF4F6
:1015C0006CAF08E0A7F58017BD4204D007F580375F
:1015D000BD427FF462AF8D687DB1012D08D04261BC
:1015E00008265AE7CE68083657E7CE680C3654E727
:1015F0000261082651E700264FE704264DE700F177
:10160000040E4EE7A4F10805AD004EE74FF0030EBF
:1016100087E74FF0000E84E74FF0010E81E74FF0AF
:10162000020E7EE70E4D2A6822EA03022A6087E74F
:101630000B4D6A6822EA03026A6089E7084DAA68CE
:1016400022EA0302AA608BE7054DEA6822EA030357
:10165000EB608DE703B0F0BD0010024000000140D8
:10166000000401400000211000003110000801407A
:1016700012B909040161704701617047C36859409C
:10168000C160704708B590F82130022B03D00423C5
:101690008363012008BD0268136823F00E03136002
:1016A0000268136823F0010313600368194A934228
:1016B00014D0143293421FD0143293421ED01432ED
:1016C00093421ED0143293421ED01432934202D061
:1016D0004FF0807203E04FF4801200E001220E4BC5
:1016E0005A60012380F82130002380F82030436BBA
:1016F0006BB19847002008BD1022F0E74FF48072CC
:10170000EDE74FF48052EAE74FF48032E7E700203C
:1017100008BD00BF0800024000000240074AD3682D
:1017200023F4E0631B041B0C000200F4E060184388
:1017300040F0BF6040F40030D060704700ED00E042
:1017400030B4164BDB68C3F30223C3F10704042C47
:1017500028BF04241D1D062D17D9033B012505FABA
:1017600004F4013C2140994005FA03F3013B134086
:10177000194300280BDB0901C9B200F1604000F5F4
:10178000614080F8001330BC70470023E6E700F0AA
:101790000F000901C9B2024B1954F4E700ED00E053
:1017A00014ED00E0420900F01F00012303FA00F0ED
:1017B000014B43F82200704700E100E00138B0F12E
:1017C000807F0AD2064B5860F021064A82F8231027
:1017D0000020986007221A6070470120704700BF00
:1017E00010E000E000ED00E0042805D0054A136891
:1017F00023F0040313607047024A136843F00403A4
:101800001360704710E000E00F4B1A6842F00102CD
:101810001A6059680D4A0A405A601A6822F08472A8
:1018200022F480321A601A6822F480221A605A6800
:1018300022F4FE025A604FF41F029A604FF00062D9
:10184000034B9A60704700BF001002400000FFF891
:1018500000ED00E0124A12F0070F1ED0D11D21F05A
:101860000701C1F5406313440A460E480260002197
:1018700041601344083B23F007030B4803605960A1
:101880001960991A51601360084B1960084B196070
:101890004FF00042074B1A6070474FF44063E4E793
:1018A0002C000020380C002028000020340C0020E0
:1018B000300C00202C0C002010B4124B1A6882420D
:1018C0001AD359685C18A04203D14068014459609A
:1018D000184641684418A24212D10B4C2468A24217
:1018E0000CD05268114441601A6812680260984234
:1018F00000D0186010BC70471346DFE70460F6E7BD
:101900000260F4E7380C00202800002070B504467F
:1019100000F0D0FB3A4B1B68BBB13A4B1B681C4232
:1019200063D1ACB1083414F0070F11D024F00704D0
:10193000083404F007035BB14FF0500383F31188C0
:10194000BFF36F8FBFF34F8FFEE7FFF783FFE4E72F
:10195000002C4CD02C4B1B689C424AD82B4B1D684A
:1019600001E02B4615466A68944202D92A68002A8B
:10197000F7D1234A126895423DD01E6808362A687E
:101980001A606B681B1B102B10D9281910F0070F59
:1019900008D04FF0500383F31188BFF36F8FBFF36C
:1019A0004F8FFEE743606C60FFF786FF6A68164959
:1019B0000B689B1A0B60164909688B4201D21449C7
:1019C0000B60104B1B6813436B6000232B6000F00F
:1019D00009FC16F0070F10D04FF0500383F3118865
:1019E000BFF36F8FBFF34F8FFEE70026EFE70026B0
:1019F000EDE70026EBE70026E9E7304670BD00BFC3
:101A0000280000202C0C0020300C0020380C002076
:101A1000340C002080B338B50446A0F1080550F816
:101A2000042C164909680A4208D14FF0500383F389
:101A30001188BFF36F8FBFF34F8FFEE750F8080C8C
:101A400040B14FF0500383F31188BFF36F8FBFF3A2
:101A50004F8FFEE722EA010244F8042C00F02AFB33
:101A600054F8041C064A13680B4413602846FFF719
:101A700023FF00F0B7FB38BD704700BF2C0C0020DF
:101A8000300C00200B4B1B68B3F1FF3F08D04FF028
:101A9000500383F31188BFF36F8FBFF34F8FFEE7BF
:101AA0004FF0500383F31188BFF36F8FBFF34F8F55
:101AB000FEE700BF0800002006480068006880F3C9
:101AC000088862B661B6BFF34F8FBFF36F8F00DF38
:101AD00000BF000008ED00E04FF0807340F8043CC8
:101AE00021F0010140F8081C034B40F80C3C40F881
:101AF000202C4038704700BF851A00080000000005
:101B0000074B19680868B0E8F00F80F30988BFF345
:101B10006F8F4FF0000080F311884EF00D0E70476C
:101B2000480C00204FF0500383F31188BFF36F8FF0
:101B3000BFF34F8F0A4A136801331360012B0DD195
:101B4000084B1B6813F0FF0F08D04FF0500383F3CE
:101B50001188BFF36F8FBFF34F8FFEE7704700BF51
:101B60000800002004ED00E0094B1B6843B94FF06A
:101B7000500383F31188BFF36F8FBFF34F8FFEE7DE
:101B8000013B034A13600BB983F31188704700BF10
:101B9000080000200000000000000000000000001D
:101BA000EFF30980BFF36F8F0D4B1A6820E9F00F38
:101BB00010602DE908404FF0500080F3118800F0CC
:101BC000F9FB4FF0000080F31188BDE80840196868
:101BD0000868B0E8F00F80F30988BFF36F8F704793
:101BE000480C002008B54FF0500383F31188BFF371
:101BF0006F8FBFF34F8F00F065FA18B14FF080522E
:101C0000024B1A60002383F3118808BD04ED00E045
:101C1000064B1B68064AA2FB03239B09013B054AAE
:101C200013600722044B1A60704700BF04000020B5
:101C3000D34D621014E000E010E000E000B583B086
:101C40001F4B1A78D2B20192FF221A701B78DBB2B6
:101C50008DF803309DF8033003F05003194A1370D8
:101C60000722194B1A6009E0174A1368013B1360F9
:101C70009DF803305B00DBB28DF803309DF8033034
:101C800013F0800FF0D1104A13681B0203F4E063D5
:101C90001360019BDBB20A4A13700C4B1A6842F4C2
:101CA00070021A601A6842F070421A60FFF7B0FFC3
:101CB0000022074B1A60FFF7FFFEFFF7E3FE00BFAD
:101CC00000E400E0400C0020440C002020ED00E087
:101CD0000800002000F1080343604FF0FF328260EB
:101CE000C3600361002303607047002303617047F2
:101CF00043684B609A688A609A685160996008618D
:101D0000036801330360704730B40D68B5F1FF3FDD
:101D100002D000F1080202E0026904E01A465368AA
:101D20001C68A542FAD253684B6099608A60516082
:101D3000086103680133036030BC7047036942687F
:101D4000816891608268416851605A68904205D00C
:101D500000220261186801381860704782685A6072
:101D6000F6E700000A4B1B681B684BB901234BB90F
:101D7000074B1B68DB68DB685A68064B1A607047C4
:101D80000023F4E74FF0FF32024B1A60704700BFA8
:101D90004C0C0020240D002010B50446006BFFF70A
:101DA00039FE2046FFF736FE10BD2DE9F04780468C
:101DB0009946089D099F0A9C266B02F18042013AD0
:101DC00006EB820626F0070600230F2B07D8C85C17
:101DD000E21882F83400CA5C0AB10133F5E7002347
:101DE00084F84330062D00D90625E56265644FF07E
:101DF000000AC4F848A0201DFFF777FF04F118007F
:101E0000FFF773FF2461C5F10705A5616462C4F89B
:101E10004CA084F850A04A4641463046FFF75CFE8D
:101E2000206007B13C60BDE8F087000038B50024B1
:101E300007E004EB840293000E481844FFF74AFFC2
:101E40000134062CF5D90C4D2846FFF743FF0B4C07
:101E50002046FFF73FFF0A48FFF73CFF0948FFF71E
:101E600039FF0948FFF736FF084B1D60084B1C601F
:101E700038BD00BF540C0020F80C00200C0D0020D1
:101E80002C0D0020580D0020440D00204C0C00208B
:101E9000500C002010B50446FFF744FE204A13689A
:101EA000013313601F4B1B68002B31D01E4B1B6886
:101EB0003BB91C4B1B68DA6AE36A9A4201D8194B9A
:101EC0001C601A4A136801331360E36A01229A40C6
:101ED0001749086802430A6003EB83039A00211D37
:101EE00014481044FFF704FFFFF73EFE0E4B1B683B
:101EF0006BB10C4B1B68DA6AE36A9A4207D24FF067
:101F000080520D4B1A60BFF34F8FBFF36F8F10BD20
:101F1000044B1C601368012BD3D1FFF787FFD0E778
:101F2000E00C0020480C0020400D0020F00C0020A8
:101F3000F40C0020540C002004ED00E070B50446C1
:101F40000E461D4B1D681D4B18680430FFF7F6FE4A
:101F500050B91A4B1B68DA6A012303FA02F21849D6
:101F60000B6823EA02030B60B4F1FF3F13D02C444B
:101F7000124B1B685C60A54216D8124B18680F4BB9
:101F800019680431FFF7C0FE0F4B1B689C4201D259
:101F90000D4B1C6070BD002EE9D0084B1968043150
:101FA0000A48FFF7A5FE70BD094B1868034B196876
:101FB0000431FFF7A9FE70BD6C0D0020480C002015
:101FC000F40C00204C0C0020240D0020440D0020B7
:101FD000500C00202DE9F04385B006460F4615460B
:101FE00098469000FFF792FC00B381465420FFF71B
:101FF0008DFC0446B0B1C0F83090CCB100230393FF
:1020000002940D9B01930C9B009343462A4639464C
:102010003046FFF7CAFE2046FFF73CFF012005B01F
:10202000BDE8F0834846FFF7F5FCE6E70024E4E767
:102030004FF0FF30F3E7000000B583B0174B01937A
:1020400000230093802216491648FFF7C3FF01289A
:1020500005D0B0F1FF3F17D003B05DF804FB4FF09F
:10206000500383F31188BFF36F8FBFF34F8F4FF08F
:10207000FF320D4B1A6001220C4B1A6000220C4BF0
:102080001A60FFF7DBFDE7E74FF0500383F3118899
:10209000BFF36F8FBFF34F8FFEE700BF200D00200F
:1020A000F42500088D230008240D0020400D002099
:1020B0006C0D0020024A136801331360704700BFA3
:1020C000EC0C0020F8B53C4B1B68002B68D13B4B57
:1020D0001D6801351D60C5B9394B1B681B6843B1CC
:1020E0004FF0500383F31188BFF36F8FBFF34F8F0F
:1020F000FEE7334A1168334B186810601960324AA2
:10210000136801331360FFF72DFE304B1B689D42AF
:102110003AD200242E4B1B68DB6A03EB83039A0040
:102120002C4B9B58012B40D901243EE00124244B29
:102130001B681B6853B3002353BB214B1B68DB6830
:10214000DE6873689D4228D3371D3846FFF7F6FDD9
:10215000B36A1BB106F11800FFF7F0FDF36A012224
:102160009A401D49086802430A6003EB83039A0002
:10217000394618481044FFF7BBFDF26A144B1B6840
:10218000DB6A9A42D2D2D2E70024D0E70123D3E718
:102190004FF0FF320D4B1A60BCE70C4A1360B9E7F1
:1021A0000E4A13680133136000240D4B1B6803B102
:1021B00001242046F8BD00BFEC0C00206C0D00206F
:1021C0004C0C0020500C0020280D0020240D002075
:1021D000480C0020540C0020F40C0020E80C0020D7
:1021E000700D002038B5354B1B6843B94FF05003D4
:1021F00083F31188BFF36F8FBFF34F8FFEE7FFF7B5
:1022000091FC2E4B1A68013A1A601B68002B50D1C2
:102210002B4B1B6823B90024FFF7A6FC204638BDD2
:102220000024284B1B681BB3264BDB68DC6804F1D9
:102230001800FFF783FD251D2846FFF77FFDE36AA1
:1022400001229A402049086802430A6003EB830395
:102250009A0029461D481044FFF74AFDE26A1C4BCC
:102260001B68DB6A9A42DCD301221A4B1A60D8E75A
:102270000CB1FFF777FD184B1C6874B9154B1B6840
:10228000CBB14FF08052154B1A60BFF34F8FBFF3A5
:102290006F8F0124C0E7013C07D0FFF713FF002830
:1022A000F9D001220B4B1A60F5E700220A4B1A60A5
:1022B000E4E70024B0E70024AEE700BFEC0C002008
:1022C000E00C00202C0D0020F40C0020540C002009
:1022D000480C0020700D0020E80C002004ED00E008
:1022E00010B5A8B10446104B1B6843B14FF0500322
:1022F00083F31188BFF36F8FBFF34F8FFEE7FFF7B4
:10230000D9FE00212046FFF719FEFFF76BFF00E022
:10231000002038B94FF08052044B1A60BFF34F8F42
:10232000BFF36F8F10BD00BFEC0C002004ED00E088
:10233000134B1B6813B310B5FFF7BCFE114B1C68A1
:10234000FFF750FF24B90E4B1B68002BF4D110BDD2
:10235000FFF7E8FB0B4BDB68DC68201DFFF7EEFCAA
:10236000094A1368013B1360054A1368013B136077
:10237000FFF7FAFB2046FFF70FFDE4E7704700BFC9
:10238000E40C0020580D0020E00C002008B5FFF7F9
:10239000CFFF064B1B68012BF9D94FF08052044B3D
:1023A0001A60BFF34F8FBFF36F8FF0E7540C00201C
:1023B00004ED00E0204B1B68C3B900221F4B1A60DC
:1023C0001F4B1B68B3FA83F3DBB2C3F11F0303EBAC
:1023D00083018A001B498A5862B94FF0500383F386
:1023E0001188BFF36F8FBFF34F8FFEE70122134BAE
:1023F0001A60704710B413489A00D418A100014421
:102400004C6864684C601A44910008310844844266
:102410000AD003EB83039A000A4B13445B68DA6823
:10242000094B1A6010BC7047606803EB830291008F
:10243000044A0A445060ECE7EC0C0020700D0020C8
:10244000F40C0020540C0020480C0020054B1B68A5
:1024500023B1054B1B681BB9022070470120704750
:1024600000207047400D0020EC0C0020842801D093
:10247000033070470020704708B5FFF7DDFD0020EE
:1024800008BDF0B585B00F46446805680669B0F927
:102490000800FFF7EBFF03AB019300903B46B2B29D
:1024A00029462046FFF796FD012802D1039805B082
:1024B000F0BD0020FBE708B5034600B9012318462C
:1024C000FFF70EFF002008BD08B5FFF7BFFF01288A
:1024D00001D0FFF787FB08BD002103E00B4B5B58E1
:1024E000435004310A480B4B42189A42F6D30A4A29
:1024F00002E0002342F8043B084B9A42F9D3FFF76D
:1025000083F900F00FF8FDF711FF7047042600086B
:10251000000000200C0000200C000020480E0020CD
:10252000FEE7000070B500250C4E0D4CA41BA41056
:10253000A54209D100F01AF800250A4E0A4CA41B46
:10254000A410A54205D170BD56F825309847013535
:10255000EEE756F8253098470135F2E7FC250008EC
:10256000FC250008FC25000800260008F8B500BF7F
:10257000F8BC08BC9E467047F8B500BFF8BC08BC64
:042580009E467047BC
:10258400D42500087D0100080000000000000000C0
:1025940080000000CC250008950100080000000020
:1025A400000000008000000002030405060708097B
:1025B4000A0B0C0D0E0F1010010200005372632F52
:1025C4006D61696E2E6300005461736B30320000DC
:1025D4005461736B30310000000000000000000003
:1025E40001020304060708090000000001020304B5
:0825F40049444C4500000000C1
:0425FC00350100089D
:0426000011010008BC
:0C2604000100000000A24A04AAAAAAAA31
:04000005080024D9F2
:00000001FF
