:020000040800F2
:10000000005000201536000865030008670300084B
:10001000690300086B0300086D030008000000007E
:1000200000000000000000000000000001180008AF
:100030006F03000800000000A11800087103000809
:100040005D3600085D3600085D3600085D36000844
:100050005D3600085D3600085D3600085D36000834
:100060005D3600085D3600085D3600085D36000824
:100070005D3600085D3600085D3600085D36000814
:100080005D3600085D3600085D3600085D36000804
:100090005D3600085D3600085D3600085D360008F4
:1000A0005D3600085D3600085D3600085D360008E4
:1000B0005D3600085D3600085D3600085D360008D4
:1000C0005D3600085D3600085D3600085D360008C4
:1000D0005D3600087D0300085D3600085D360008C7
:1000E0005D3600085D3600085D360008000000003F
:1000F0000000000000000000000000000000000000
:0C01000000000000000000005FF808F1A3
:1001100010B5054C237833B9044B13B10448AFF341
:1001200000800123237010BD780000200000000033
:10013000404600080C4B43B10C4810B50C49AFF3D6
:1001400000800C48036823B910BD0A48036833B91E
:100150007047094B002BF7D0BDE810401847064BFD
:10016000002BF5D0184700BF0000000040460008F3
:100170007C0000207400002000000000FEE700006A
:1001800010B588B0184B9A6942F020029A619A69BA
:1001900002F020020192019A9A6942F008029A61E3
:1001A0009A6902F008020292029A9A6942F00402E5
:1001B0009A619B6903F004030393039B0B4C012298
:1001C0004FF4E041204601F0D5F84FF4E0430493AA
:1001D00001230593002306930223079304A92046D5
:1001E00000F0D2FF08B010BD00100240000C01402A
:1001F00008B502F015F802F02BF802F06DF8F8E7F8
:10020000FEE7000008B50B480B4B03604FF4E133E9
:10021000436000238360C36003610C2242618361F9
:10022000C36100F023FB00B908BD9A210348FFF722
:10023000E7FF00BF74120020003801409446000818
:1002400008B50C480C4B0360102343600023836007
:10025000C360036143618361C3610362436283627C
:10026000C36200F047F900B908BD87210348FFF7D2
:10027000C7FF00BF30120020006400409446000811
:1002800000B591B0012206924FF48033079300210C
:1002900008910A9202220D920E934FF4E0130F93ED
:1002A00006A800F069FC08BB0F230193022102910C
:1002B000002303934FF480620492059301A800F099
:1002C00081FEB8B900F03AFF0C4BA3FB0030800967
:1002D00001F0F6F8042001F009F900220F214FF097
:1002E000FF3001F0AFF811B05DF804FB592104486C
:1002F000FFF786FF67210248FFF782FFD34D6210A8
:100300009446000800B58BB000F0FCFBFFF7B8FF87
:10031000FFF736FFFFF776FFFFF792FF01F0DCFEF5
:100320000D4C05AD26460FCE0FC533682B6000215E
:1003300005A801F098FE094B18606D4614340FCCE7
:100340000FC523682B600021684601F08CFE044B2A
:10035000186001F083FEFEE758460008B412002042
:100360002C1200207047FEE7FEE7FEE7FEE770472D
:1003700008B500F0D9FB01F090FE08BD08B50248B1
:1003800000F002FB08BD00BF7412002000B583B06E
:10039000244B9A6942F001029A619A6902F00102C3
:1003A0000092009ADA6942F08052DA61DB6903F068
:1003B00080530193019B032001F032F80022114683
:1003C0006FF00B0001F03EF8002211466FF00A00BA
:1003D00001F038F8002211466FF0090001F032F800
:1003E000002211466FF0040001F02CF800221146A3
:1003F0006FF0030001F026F800220F216FF00100DA
:1004000001F020F800220F214FF0FF3001F01AF820
:10041000054A536823F0E06343F00073536003B070
:100420005DF804FB00100240000001400268144B1C
:100430009A4200D0704710B586B003F5D633DA691A
:1004400042F00072DA61DB6903F000730193019BF3
:100450004FF400630293002303930493094C02A911
:10046000204600F091FE4FF4805302930223039341
:100470000323059302A9204600F086FE06B010BDB6
:1004800000640040000801400268184B9A4200D006
:10049000704730B587B003F558439A6942F48042FB
:1004A0009A619B6903F480430193019B4FF40073AD
:1004B000029302230393032305930D4D02A92846BB
:1004C00000F062FE4FF480630293002403940494CE
:1004D00002A9284600F058FE22460521252000F0FA
:1004E000B1FF252000F0E0FF07B030BD003801402B
:1004F00000080140002800F09C8038B5044690F8C0
:100500003C3003B3022384F83C302268136823F0A4
:10051000020313602268136843F00103136000F0C4
:100520000FFB054623685A6812F0010F10D100F046
:1005300007FB401B0A28F5D9032084F83C00002360
:1005400084F83D3038BD80F83D30FFF76FFFD9E7C4
:100550005A6812F0010F5DD0A269012A43D000222F
:10056000E169012941D022F04002216A01293FD0EE
:1005700022F02002616A01293DD022F01002A16A16
:1005800001293BD022F00802E16A012939D022F08A
:100590000402196821F0FC010A431A602168A3686B
:1005A000E268134322691343626913436268013AA4
:1005B0001343CB612268136823F00103136000F03A
:1005C000BFFA054623685A6812F0010F1CD000F0EC
:1005D000B7FA401B0A28F5D9032084F83C00002311
:1005E00084F83D3038BD8022BAE742F04002BCE7D3
:1005F00042F02002BEE742F01002C0E742F00802DB
:10060000C2E742F00402C4E75B6813F0010F08D0B0
:10061000002300E0002333B9042384F83C30012098
:1006200038BD0123F7E700202064012384F83C3023
:1006300038BD012070470268D36823F49073D360FB
:100640000268536923F001035361202380F83A3094
:10065000704790F83930DBB2212B01D0022070476F
:100660008368B3F5805F17D00268036A591C016282
:100670001B785360C38C9BB2013B9BB2C384DBB934
:100680000268D36823F08003D3600268D36843F024
:100690004003D36000207047036A02681B88C3F3DD
:1006A0000803536003691BB9036A02330362E1E77D
:1006B000036A01330362DDE7002070472DE9F0474C
:1006C00005460268136923F44053C1680B43136164
:1006D000836802691343426913430168CA6822F4BC
:1006E000B05222F00C021343CB600268536923F42A
:1006F000407381690B435361D0F80080594B984592
:1007000057D000F021FD00EB800000EB80006C680A
:10071000A400B0FBF4F4544FA7FB04346409260191
:1007200000F012FD00EB800000EB80006C68A4007C
:10073000B0FBF4FA00F008FD00EB800000EB800055
:100740006C68A400B0FBF4F4A7FB043464094FF018
:10075000640909FB14A424013234A7FB043464099E
:1007600004F0F004344400F0EFFC00EB800000EBF8
:1007700080006E68B600B0FBF6F600F0E5FC00EB1A
:10078000800000EB80006B689B00B0FBF3F0A7FBE0
:100790000030400909FB10694FEA091909F13209D3
:1007A000A7FB0937C7F343172744C8F80870BDE80B
:1007B000F08700F0D9FC00EB800000EB80006C6853
:1007C000A400B0FBF4F4284FA7FB0434640926010D
:1007D00000F0CAFC00EB800000EB80006C68A40015
:1007E000B0FBF4FA00F0C0FC00EB800000EB8000EE
:1007F0006C68A400B0FBF4F4A7FB043464094FF068
:10080000640909FB14A424013234A7FB04346409ED
:1008100004F0F004344400F0A7FC00EB800000EB8F
:1008200080006E68B600B0FBF6F600F09DFC00EBB1
:10083000800000EB80006B689B00B0FBF3F3A7FB2C
:1008400003235B0909FB13694FEA091909F132090E
:10085000A7FB0937C7F343172744C8F80870BDE85A
:10086000F08700BF003801401F85EB5158B310B529
:10087000044690F839300BB3242384F839302268C9
:10088000D36823F40053D3602046FFF717FF226894
:10089000136923F4904313612268536923F02A03F8
:1008A00053612268D36843F40053D3600020E063AF
:1008B000202384F8393084F83A3010BD80F838307D
:1008C000FFF7E2FDD8E701207047704708B50168DF
:1008D000CB6823F04003CB60202380F83930FFF74A
:1008E000F4FF002008BD704708B590F83A30DBB23D
:1008F000222B01D0022008BD8368B3F5805F0FD0A2
:1009000003690BBB836A5A1C8262026852681A70C0
:10091000C38D9BB2013B9BB2C385F3B1002008BDE0
:10092000826A036943B903685B68C3F308031380F1
:10093000836A02338362EBE703685B68DBB2138090
:10094000836A01338362E3E7826A531C836203682C
:100950005B6803F07F031370DAE70268D36823F063
:100960002003D3600268D36823F48073D3600268E5
:10097000536923F001035361202380F83A30FFF7D5
:10098000B2FF002008BD704710B504460268136826
:10099000D168526913F00F0005D113F0200F02D077
:1009A00011F0200F53D1002867D012F0010202D1BC
:1009B00011F4907F61D013F0010F06D011F4807F05
:1009C00003D0E06B40F00100E06313F0040F04D0AB
:1009D0001AB1E06B40F00200E06313F0020F04D0A4
:1009E0001AB1E06B40F00400E06313F0080F04D08C
:1009F0001AB1E26B42F00802E263E26B002A48D0CF
:100A000013F0200F02D011F0200F24D123685B696E
:100A100003F04003E26B12F0080F00D13BB3204615
:100A2000FFF709FE23685A6912F0400F1BD05A697C
:100A300022F040025A61636B8BB11A4A5A63606BB1
:100A400000F0A2FC28B3606B436B984710BD2046B2
:100A5000FFF74AFF10BD2046FFF746FFD6E72046C6
:100A6000FFF791FF10BD2046FFF78DFF10BD204618
:100A7000FFF789FF0023E36310BD13F0800F02D05E
:100A800011F0800F06D113F0400F02D011F0400F8B
:100A900004D110BD2046FFF7DCFD10BD2046FFF756
:100AA00015FFF6E7A90A000808B5406A0023C385C8
:100AB000C384FFF768FF08BD10B504460E4B1878D5
:100AC0004FF47A73B3FBF0F30C4A1068B0FBF3F009
:100AD00000F0F6FC68B90F2C01D9012010BD0022EE
:100AE00021464FF0FF3000F0ADFC054B1C600020AC
:100AF00010BD012010BD00BF000000200800002034
:100B00000400002008B5074A136843F0100313607F
:100B1000032000F085FC0F20FFF7CEFFFFF736FC27
:100B2000002008BD00200240034A1168034B1B78D7
:100B30000B441360704700BFB81200200000002073
:100B4000014B1868704700BFB812002082B0084BF4
:100B50001B68084AA2FB03235B0A00FB03F0019019
:100B600000BF019B5A1E0192002BF9D102B07047C1
:100B700008000020D34D621070B582B004460368AF
:100B800013F0010F3DD0AC4B5B6803F00C03042B5A
:100B90002ED0A94B5B6803F00C03082B23D06368AD
:100BA000B3F5803F51D0002B55D103F1804303F5BD
:100BB00004331A6822F480321A601A6822F4802200
:100BC0001A606368002B60D0FFF7BAFF05469A4BA6
:100BD0001B6813F4003F14D1FFF7B2FF401B6428D9
:100BE000F5D90320AFE1944B5B6813F4803FD6D076
:100BF000914B1B6813F4003F03D06368002B00F097
:100C00009F81236813F0020F65D08B4B5B6813F054
:100C10000C0F4ED0884B5B6803F00C03082B43D0BD
:100C20002369002B79D00122844B1A60FFF788FFDB
:100C30000546814B1B6813F0020F65D1FFF780FF5B
:100C4000401B0228F5D903207DE17B4A136843F459
:100C500080331360B5E7B3F5A02F09D0764B1A683F
:100C600022F480321A601A6822F480221A60A8E7FF
:100C700003F18043A3F53C331A6842F480221A60E2
:100C80001A6842F480321A609BE7FFF759FF054665
:100C9000694B1B6813F4003FB3D0FFF751FF401BB3
:100CA0006428F5D903204EE1634B5B6813F4803F61
:100CB000B6D1614B1B6813F0020F04D02369012BDE
:100CC00001D001203FE15C4A136823F0F803616919
:100CD00043EAC1031360236813F0080F32D0A369FD
:100CE000002B6ED00122564B1A60FFF729FF0546F4
:100CF000514B5B6A13F0020F21D1FFF721FF401B1C
:100D00000228F5D903201EE14B4A136823F0F803AB
:100D1000616943EAC1031360DDE70022474B1A60B3
:100D2000FFF70EFF0546444B1B6813F0020FD2D0AD
:100D3000FFF706FF401B0228F5D9032003E101203D
:100D4000FFF704FF236813F0040F00F099803A4B7B
:100D5000DB6913F0805F46D1374BDA6942F080528D
:100D6000DA61DB6903F080530193019B0125354B68
:100D70001B6813F4807F38D0E368012B49D0002B27
:100D80004DD103F1804303F504331A6A22F00102C6
:100D90001A621A6A22F004021A62E368002B5DD01C
:100DA000FFF7CEFE0646244B1B6A13F0020F66D1F6
:100DB000FFF7C6FE801B41F288339842F3D9032027
:100DC000C1E000221E4B1A60FFF7BAFE05461A4B1F
:100DD0005B6A13F0020FB5D0FFF7B2FE401B02288A
:100DE000F5D90320AFE00025C1E7164A136843F4A4
:100DF00080731360FFF7A4FE0646124B1B6813F4C2
:100E0000807FB9D1FFF79CFE801B6428F5D90320B1
:100E100099E0094A136A43F001031362BDE7052B09
:100E200012D0054B1A6A22F001021A621A6A22F0E5
:100E300004021A62B1E700BF001002400000424203
:100E40008004424200700040414B1A6A42F00402A2
:100E50001A621A6A42F001021A629EE7FFF770FEF8
:100E600006463B4B1B6A13F0020F08D0FFF768FEE3
:100E7000801B41F288339842F3D9032063E0E5B93F
:100E8000E369002B5ED0324A526802F00C02082A55
:100E90005BD0022B17D000222E4B1A60FFF750FEBA
:100EA00004462B4B1B6813F0007F47D0FFF748FE2A
:100EB000001B0228F5D9032045E0254AD36923F019
:100EC0008053D361DCE70022224B1A60FFF738FE23
:100ED00005461F4B1B6813F0007F06D0FFF730FE5E
:100EE000401B0228F5D903202DE0236AB3F5803F8B
:100EF0001AD017494B6823F47413226A606A0243BC
:100F000013434B600122134B1A60FFF719FE04468E
:100F10000F4B1B6813F0007F0ED1FFF711FE001B73
:100F20000228F5D903200EE0094A536823F4003360
:100F3000A1680B435360DCE7002004E0002002E0DE
:100F4000012000E0002002B070BD0120FBE700BFDF
:100F5000001002406000424210B586B0154C94E883
:100F60000F000DF1180E0EE90F00238AADF80430C2
:100F7000114B5B6803F00C02082A18D1C3F38342BB
:100F8000724412F8102C13F4803F03D10B4800FB7D
:100F900002F00DE0084B5B68C3F34043734413F861
:100FA000143C074800FB02F0B0FBF3F000E00448FB
:100FB00006B010BD804600080010024000093D0048
:100FC00000127A00594B1B6803F007038B420CD2C6
:100FD000564A136823F007030B431360136803F0AA
:100FE0000703994201D00120704770B5036813F0E0
:100FF000020F06D04E4A536823F0F003846823435F
:1010000053600D460446036813F0010F52D0436845
:10101000012B23D0022B28D0454A126812F0020F70
:1010200000F0828042494A6822F0030213434B6079
:10103000FFF786FD06466368012B1DD0022B2AD0E0
:101040003B4B5B6813F00C0F34D0FFF779FD801B2E
:1010500041F288339842F3D9032070BD344A1268B4
:1010600012F4003FDED1012070BD314A126812F047
:10107000007FD7D1012070BD2D4B5B6803F00C03BE
:10108000042B17D0FFF75CFD801B41F28833984298
:10109000F2D9032070BD264B5B6803F00C03082BCC
:1010A00008D0FFF74DFD801B41F288339842F2D9FA
:1010B000032070BD1D4B1B6803F007039D420CD23B
:1010C0001A4A136823F007032B431360136803F0D5
:1010D00007039D4201D0012070BD236813F0040F67
:1010E00006D0134A536823F4E063E1680B4353606E
:1010F000236813F0080F07D00D4A536823F4605398
:10110000216943EAC1035360FFF726FF084B5B6880
:10111000C3F30313074AD35CD840074B18600F2072
:10112000FFF7CAFC002070BD012070BD0020024006
:1011300000100240B046000808000020014B18686B
:10114000704700BF0800002008B5FFF7F7FF044B09
:101150005B68C3F30223034AD35CD84008BD00BFD9
:1011600000100240C046000808B5FFF7E7FF044B37
:101170005B68C3F3C223034AD35CD84008BD00BFF9
:1011800000100240C0460008F0B583B00026344687
:1011900071E0002D00F0A180012D00D1CE68FF2B61
:1011A00000F2AF808646FF2B00F2AE80A500DEF88D
:1011B00000200F27AF4022EA070206FA05F52A436E
:1011C000CEF800204A6812F0805F53D0634A9569D8
:1011D00045F001059561926902F001020192019AC0
:1011E000A508AF1C5E4A52F8272004F00307BF0091
:1011F0004FF00F0E0EFA07FE22EA0E02DFF870E142
:10120000704500F088800EF5806E704500F0868095
:101210000EF5806E704500F084800EF5806E70458E
:1012200076D04FF0040E0EFA07F73A4302354C4FD2
:1012300047F825204A6812F4803F75D0494D2A6846
:101240001A432A604A6812F4003F73D0454D6A6819
:101250001A436A604A6812F4801F71D0414DAA682F
:101260001A43AA604A6812F4001F6FD03D4DEA6825
:101270001343EB6001340F2C6ED80122A2400B689F
:1012800013409A42F6D14D68122D30D00BD8022D62
:101290002AD07FF67EAF032D2FD0112D7FF47FAFA4
:1012A000CE6804367BE7304FBD4216D00CD92F4FA5
:1012B000BD4212D007F58037BD420ED0A7F580178A
:1012C000BD427FF46CAF08E0A7F58017BD4204D0A3
:1012D00007F58037BD427FF462AF8D687DB1012D87
:1012E00008D0426108265AE7CE68083657E7CE682C
:1012F0000C3654E70261082651E700264FE7042622
:101300004DE700F1040E4EE7A4F10805AD004EE7ED
:101310004FF0030E87E74FF0000E84E74FF0010E09
:1013200081E74FF0020E7EE70E4D2A6822EA0302A3
:101330002A6087E70B4D6A6822EA03026A6089E740
:10134000084DAA6822EA0302AA608BE7054DEA6805
:1013500022EA0303EB608DE703B0F0BD001002400A
:101360000000014000040140000021100000311085
:101370000008014012B9090401617047016170471A
:10138000C3685940C160704708B590F82130022BFE
:1013900003D004238363012008BD0268136823F08F
:1013A0000E0313600268136823F0010313600368DF
:1013B000194A934214D0143293421FD014329342EC
:1013C0001ED0143293421ED0143293421ED01432D7
:1013D000934202D04FF0807203E04FF4801200E09D
:1013E00001220E4B5A60012380F82130002380F83F
:1013F0002030436B6BB19847002008BD1022F0E706
:101400004FF48072EDE74FF48052EAE74FF48032F8
:10141000E7E7002008BD00BF0800024000000240CE
:10142000074AD36823F4E0631B041B0C000200F49A
:10143000E060184340F0BF6040F40030D060704777
:1014400000ED00E030B4164BDB68C3F30223C3F1B8
:101450000704042C28BF04241D1D062D17D9033BA7
:10146000012505FA04F4013C2140994005FA03F3F3
:10147000013B1340194300280BDB0901C9B200F1FD
:10148000604000F5614080F8001330BC70470023D5
:10149000E6E700F00F000901C9B2024B1954F4E766
:1014A00000ED00E014ED00E0420900F01F00012310
:1014B00003FA00F0014B43F82200704700E100E01E
:1014C0000138B0F1807F0AD2064B5860F021064AFD
:1014D00082F823100020986007221A6070470120CC
:1014E000704700BF10E000E000ED00E0042805D0E8
:1014F000054A136823F0040313607047024A136817
:1015000043F004031360704710E000E00F4B1A68CB
:1015100042F001021A6059680D4A0A405A601A687E
:1015200022F0847222F480321A601A6822F4802237
:101530001A605A6822F4FE025A604FF41F029A6041
:101540004FF00062034B9A60704700BF00100240EA
:101550000000FFF800ED00E0124A12F0070F1ED065
:10156000D11D21F00701C1F5406313440A460E481E
:101570000260002141601344083B23F007030B483D
:10158000036059601960991A51601360084B196023
:10159000084B19604FF00042074B1A6070474FF438
:1015A0004063E4E798000020A40C00209400002091
:1015B000A00C00209C0C0020980C002010B4124BB2
:1015C0001A6882421AD359685C18A04203D1406855
:1015D00001445960184641684418A24212D10B4C8C
:1015E0002468A2420CD05268114441601A68126803
:1015F0000260984200D0186010BC70471346DFE7C5
:101600000460F6E70260F4E7A40C002094000020D8
:1016100070B5044600F068FB3A4B1B68BBB13A4B0F
:101620001B681C4263D1ACB1083414F0070F11D011
:1016300024F00704083404F007035BB14FF05003B3
:1016400083F31188BFF36F8FBFF34F8FFEE7FFF770
:1016500083FFE4E7002C4CD02C4B1B689C424AD8FB
:101660002B4B1D6801E02B4615466A68944202D94F
:101670002A68002AF7D1234A126895423DD01E6895
:1016800008362A681A606B681B1B102B10D92819A2
:1016900010F0070F08D04FF0500383F31188BFF309
:1016A0006F8FBFF34F8FFEE743606C60FFF786FFDD
:1016B0006A6816490B689B1A0B60164909688B42C9
:1016C00001D214490B60104B1B6813436B6000235D
:1016D0002B6000F0A1FB16F0070F10D04FF0500365
:1016E00083F31188BFF36F8FBFF34F8FFEE70026A0
:1016F000EFE70026EDE70026EBE70026E9E73046B6
:1017000070BD00BF94000020980C00209C0C0020AD
:10171000A40C0020A00C002080B338B50446A0F132
:10172000080550F8042C164909680A4208D14FF000
:10173000500383F31188BFF36F8FBFF34F8FFEE722
:1017400050F8080C40B14FF0500383F31188BFF3F9
:101750006F8FBFF34F8FFEE722EA010244F8042C9B
:1017600000F0C2FA54F8041C064A13680B441360D4
:101770002846FFF723FF00F04FFB38BD704700BF3E
:10178000980C00209C0C00200B4B1B68B3F1FF3F12
:1017900008D04FF0500383F31188BFF36F8FBFF36E
:1017A0004F8FFEE74FF0500383F31188BFF36F8F25
:1017B000BFF34F8FFEE700BF0C0000200648006813
:1017C000006880F3088862B661B6BFF34F8FBFF33D
:1017D0006F8F00DF00BF000008ED00E04FF0807366
:1017E00040F8043C21F0010140F8081C034B40F88C
:1017F0000C3C40F8202C4038704700BF8917000887
:10180000074B19680868B0E8F00F80F30988BFF348
:101810006F8F4FF0000080F311884EF00D0E70476F
:10182000B40C00204FF0500383F31188BFF36F8F87
:10183000BFF34F8F0A4A136801331360012B0DD198
:10184000084B1B6813F0FF0F08D04FF0500383F3D1
:101850001188BFF36F8FBFF34F8FFEE7704700BF54
:101860000C00002004ED00E0094B1B6843B94FF069
:10187000500383F31188BFF36F8FBFF34F8FFEE7E1
:10188000013B034A13600BB983F31188704700BF13
:101890000C0000200000000000000000000000001C
:1018A000EFF30980BFF36F8F0D4B1A6820E9F00F3B
:1018B00010602DE908404FF0500080F3118800F0CF
:1018C0006BFB4FF0000080F31188BDE808401968F9
:1018D0000868B0E8F00F80F30988BFF36F8F704796
:1018E000B40C002008B54FF0500383F31188BFF308
:1018F0006F8FBFF34F8F00F0FFF918B14FF0805298
:10190000024B1A60002383F3118808BD04ED00E048
:10191000064B1B68064AA2FB03239B09013B054AB1
:1019200013600722044B1A60704700BF08000020B4
:10193000D34D621014E000E010E000E000B583B089
:101940001F4B1A78D2B20192FF221A701B78DBB2B9
:101950008DF803309DF8033003F05003194A1370DB
:101960000722194B1A6009E0174A1368013B1360FC
:101970009DF803305B00DBB28DF803309DF8033037
:1019800013F0800FF0D1104A13681B0203F4E063D8
:101990001360019BDBB20A4A13700C4B1A6842F4C5
:1019A00070021A601A6842F070421A60FFF7B0FFC6
:1019B0000022074B1A60FFF701FFFFF7E5FE00BFAB
:1019C00000E400E0AC0C0020B00C002020ED00E0B2
:1019D0000C00002000F1080343604FF0FF328260EA
:1019E000C3600361002303607047002303617047F5
:1019F00043684B609A688A609A6851609960086190
:101A0000036801330360704703694268816891602D
:101A10008268416851605A68904205D00022026194
:101A2000186801381860704782685A60F6E700004D
:101A30000A4B1B681B684BB901234BB9074B1B684A
:101A4000DB68DB685A68064B1A6070470023F4E7CE
:101A50004FF0FF32024B1A60704700BFB80C0020F5
:101A6000900D002010B50446006BFFF755FE204690
:101A7000FFF752FE10BD2DE9F04780469946089DBC
:101A8000099F0A9C266B02F18042013A06EB82060E
:101A900026F0070600230F2B07D8C85CE21882F84F
:101AA0003400CA5C0AB10133F5E7002384F84330FF
:101AB000062D00D90625E56265644FF0000AC4F8DA
:101AC00048A0201DFFF791FF04F11800FFF78DFFDC
:101AD0002461C5F10705A5616462C4F84CA084F8CF
:101AE00050A04A4641463046FFF778FE206007B1D5
:101AF0003C60BDE8F087000038B5002407E004EB47
:101B0000840293000E481844FFF764FF0134062C4A
:101B1000F5D90C4D2846FFF75DFF0B4C2046FFF72B
:101B200059FF0A48FFF756FF0948FFF753FF0948D6
:101B3000FFF750FF084B1D60084B1C6038BD00BF0D
:101B4000C00C0020640D0020780D0020980D0020AE
:101B5000C40D0020B00D0020B80C0020BC0C0020EB
:101B600010B50446FFF75EFE204A13680133136088
:101B70001F4B1B68002B31D01E4B1B683BB91C4B05
:101B80001B68DA6AE36A9A4201D8194B1C601A4A48
:101B9000136801331360E36A01229A401749086809
:101BA00002430A6003EB83039A00211D144810448A
:101BB000FFF71EFFFFF758FE0E4B1B686BB10C4B77
:101BC0001B68DA6AE36A9A4207D24FF080520D4BE3
:101BD0001A60BFF34F8FBFF36F8F10BD044B1C60B3
:101BE0001368012BD3D1FFF787FFD0E74C0D0020FE
:101BF000B40C0020AC0D00205C0D0020600D002016
:101C0000C00C002004ED00E02DE9F04385B006464D
:101C10000F46154698469000FFF7FAFC00B3814640
:101C20005420FFF7F5FC0446B0B1C0F83090CCB1B9
:101C30000023039302940D9B01930C9B0093434656
:101C40002A4639463046FFF716FF2046FFF788FF41
:101C5000012005B0BDE8F0834846FFF75DFDE6E7EB
:101C60000024E4E74FF0FF30F3E7000000B583B055
:101C7000174B019300230093802216491648FFF763
:101C8000C3FF012805D0B0F1FF3F17D003B05DF8C6
:101C900004FB4FF0500383F31188BFF36F8FBFF342
:101CA0004F8F4FF0FF320D4B1A6001220C4B1A6020
:101CB00000220C4B1A60FFF741FEE7E74FF050039C
:101CC00083F31188BFF36F8FBFF34F8FFEE700BF21
:101CD0008C0D0020C8460008711F0008900D0020E0
:101CE000AC0D0020D80D0020024A136801331360A8
:101CF000704700BF580D0020F8B53C4B1B68002B07
:101D000068D13B4B1D6801351D60C5B9394B1B6857
:101D10001B6843B14FF0500383F31188BFF36F8FFB
:101D2000BFF34F8FFEE7334A1168334B18681060DA
:101D30001960324A136801331360FFF779FE304BA4
:101D40001B689D423AD200242E4B1B68DB6A03EBD2
:101D500083039A002C4B9B58012B40D901243EE071
:101D60000124244B1B681B6853B3002353BB214B36
:101D70001B68DB68DE6873689D4228D3371D3846D0
:101D8000FFF742FEB36A1BB106F11800FFF73CFEF5
:101D9000F36A01229A401D49086802430A6003EB76
:101DA00083039A00394618481044FFF721FEF26A6F
:101DB000144B1B68DB6A9A42D2D2D2E70024D0E7E8
:101DC0000123D3E74FF0FF320D4B1A60BCE70C4AFA
:101DD0001360B9E70E4A13680133136000240D4BFA
:101DE0001B6803B101242046F8BD00BF580D002038
:101DF000D80D0020B80C0020BC0C0020940D002051
:101E0000900D0020B40C0020C00C0020600D0020BC
:101E1000540D0020DC0D002038B5354B1B6843B94C
:101E20004FF0500383F31188BFF36F8FBFF34F8FD1
:101E3000FEE7FFF7F7FC2E4B1A68013A1A601B68A1
:101E4000002B50D12B4B1B6823B90024FFF70CFD4E
:101E5000204638BD0024284B1B681BB3264BDB688B
:101E6000DC6804F11800FFF7CFFD251D2846FFF7B9
:101E7000CBFDE36A01229A402049086802430A60C8
:101E800003EB83039A0029461D481044FFF7B0FD79
:101E9000E26A1C4B1B68DB6A9A42DCD301221A4BB4
:101EA0001A60D8E70CB1FFF7C3FD184B1C6874B972
:101EB000154B1B68CBB14FF08052154B1A60BFF326
:101EC0004F8FBFF36F8F0124C0E7013C07D0FFF7AE
:101ED00013FF0028F9D001220B4B1A60F5E700220E
:101EE0000A4B1A60E4E70024B0E70024AEE700BF25
:101EF000580D00204C0D0020980D0020600D002092
:101F0000C00C0020B40C0020DC0D0020540D00207B
:101F100004ED00E0134B1B6813B310B5FFF7E4FEAC
:101F2000114B1C68FFF778FF24B90E4B1B68002B80
:101F3000F4D110BDFFF776FC0B4BDB68DC68201D8D
:101F4000FFF762FD094A1368013B1360054A1368F5
:101F5000013B1360FFF788FC2046FFF783FDE4E7B1
:101F6000704700BF500D0020C40D00204C0D002014
:101F700008B5FFF7CFFF064B1B68012BF9D94FF0CF
:101F80008052044B1A60BFF34F8FBFF36F8FF0E79F
:101F9000C00C002004ED00E0204B1B68C3B90022F8
:101FA0001F4B1A601F4B1B68B3FA83F3DBB2C3F1FC
:101FB0001F0303EB83018A001B498A5862B94FF063
:101FC000500383F31188BFF36F8FBFF34F8FFEE78A
:101FD0000122134B1A60704710B413489A00D418AA
:101FE000A10001444C6864684C601A4491000831B7
:101FF000084484420AD003EB83039A000A4B13443B
:102000005B68DA68094B1A6010BC7047606803EBC4
:1020100083029100044A0A445060ECE7580D002006
:10202000DC0D0020600D0020C00C0020B40C00204E
:10203000054B1B6823B1054B1B681BB90220704779
:102040000120704700207047AC0D0020580D002083
:10205000842801D0033070470020704708B5FFF78F
:1020600005FE002008BDF0B585B00F464468056840
:102070000669B0F90800FFF7EBFF03AB019300908E
:102080003B46B2B229462046FFF7BEFD012802D1E9
:10209000039805B0F0BD0020FBE708B5FFF7C8FFC7
:1020A000012801D0FFF71EFC08BD00000000000061
:1020B000012B01D000207047012A01D00020704779
:1020C00003A3D3E90023C1E900230120704700BF27
:1020D0009E6AC421818A46EEF0B585B0FFF734F8D8
:1020E00000230293ADF80C30424CA4FB0034A40C46
:1020F0000923591CB4FBF1F201FB124222B1022B5D
:1021000073D9013BDBB2F4E7B4FBF1F14A1EB2F53F
:10211000806F6CD2C3EBC306F21C22D4D210D5B2AE
:102120005F1BFFB2AB421ED9D2B24FF47A7402FBEE
:1021300004443A440132B4FBF2F292B2B2F5617F48
:1021400005D9751E16D4C5F3C7055B1BDFB26B1E20
:10215000DBB20F2B10D8002F3CD0082F3CD9002227
:102160000BE00732DAE7244B244A40F215112448E9
:1021700001F076FA0735E6E70022EB1903FB0113BD
:10218000B0FBF3F01F4B984228D13AB3ADF80810DA
:1021900001238DF80C308DF80A508DF80B70002358
:1021A00003B101BE002102A801F07AF800B101BE1E
:1021B000154C00230193154B0093154B4FF480628F
:1021C0001449204600F078FC0A21204600F09EFCCD
:1021D00005B0F0BD0022D0E70122CEE70E4B074A42
:1021E00040F22F11064801F03BFA0C4BD8E70B4B9D
:1021F000D6E700BF83DE1B4300470008D046000837
:102200001447000840420F00E00D0020B1200008F4
:102210000D240008040E00203C47000818FCFFFFB6
:1022200008B50A4800F043FD04E001BE07E0074896
:1022300000F03DFD48B101F017F90028F5DB00285A
:10224000F5DD024800F039FDF1E708BDE00D0020A2
:1022500000B585B0684601F091F910B905B05DF898
:1022600004FBFEF76DFC4FF47A7202FB00F20023D0
:102270006946024800F0C0FDF0E700BFE00D002015
:1022800030B583B0044600258DF807508DF8065010
:102290000560C0F80350FEF753FC0E4BA3FB003063
:1022A000800902AB43F8080D20222946204600F0A1
:1022B0000DFD0DF1070302222021204600F006FD4E
:1022C0000DF1060303222221204600F0FFFC03B09B
:1022D00030BD00BFD34D621010B588B0FEF730FCA2
:1022E000154B1B6803F5FA73984201D208B010BD74
:1022F000FEF726FC104B18604FF480510F48FFF793
:102300003FF806AC2046FFF7BBFF07230493039476
:10231000182302930A4B019340F25513009304A330
:10232000D3E90023074800F011FCDFE7AFF300809A
:10233000F1C6A7C1D068080F04120020000C0140AC
:1023400008120020E00D0020002302E0C3540133F6
:10235000DBB20F2BFAD9704730B583B0044640F298
:102360007912002101F0DBF92046FFF789FF632392
:10237000E37123720123637202AB0E4A43F8042D0A
:1023800020225021204600F0A1FC04F11800FFF7A4
:10239000DBFF094B07CBC4F82900C4F82D10C4F8A3
:1023A00031201A889B78A4F8352084F837303820FB
:1023B00003B030BDFE0FDCBAF0460008000000009C
:1023C00030B5E7B0044607AD40F279120021284647
:1023D00001F0A5F92846FFF7BFFFE17E05900495BF
:1023E00000230393A37E02931934019401230093E5
:1023F00004A3D3E90023024800F00BFC67B030BD12
:10240000E00D00209E6AC421818A46EE08B50B7E4D
:10241000012B00D008BDCB8A012BFBD10846FFF76A
:10242000CFFFF7E7091A89B208B2002800DB70472E
:10243000203108B2FBE710B421F0604420F0604284
:10244000C30FB3EBD17F0FD0002909DB002809DBD4
:10245000944217D094422CBF0020012010BC70473A
:10246000A40CF3E7920CF3E7C1F38071C0F3807022
:10247000944204D094422CBF00200120EEE7814218
:10248000ECD1F7E71846E9E710F0800F01D1022000
:10249000704710F4004F01D10020704701207047B1
:1024A00010B50446FFF7F0FF022802D0C4F307403E
:1024B00010BDC4F30F2014F07F0FF9D100F003001A
:1024C00010BD20B103698B4201D00068F9E7704765
:1024D0000020704780EA0120002307E0400080B21E
:1024E00080F4815080F001000133DBB2072B05D866
:1024F00010F4004FF2D1400080B2F5E7704770B59C
:1025000016461D46002410E0C4F12002A4F1200369
:1025100026FA04F105FA02F2114325FA03F31943EE
:10252000C9B2FFF7D7FF0834A4B23F2CECD970BD75
:1025300038B505E04D1C0978FFF7CCFF2246294647
:10254000541E002AF6D138BD30B40546002304E0FD
:1025500001EB43142C60254601339342F8D300234A
:102560002B608280C380038130BC704702685AB1FF
:1025700013680360C38801339BB2C38001898B4217
:1025800004D90381104670470020704710467047F9
:1025900008B5FFF7EBFF034608B1002202601846BA
:1025A00008BD2DE9F84FCC8AC4F30904062C1CD0D1
:1025B000254626460024052E02D89FB2BC420AD3E7
:1025C0009EB2B44212D33544CB8A65F30903CB8261
:1025D0000120BDE8F88F12F804E08F1987F81AE09F
:1025E0000136B6B20134A4B2E5E700249946934619
:1025F0000E468246CD8AC5F30905AA1F1C23B2FBED
:10260000F3F803FB18281FFA88F84F6887BBFFF719
:10261000BFFF07467060002847D04FF000081FFA40
:1026200089F18C423DD3F28AC2F309030B4463F370
:102630000902F2820120BDE8F88F013292B21F46F2
:102640003B68002BF9D109EB0503063B1C25B3FBC6
:10265000F5F39BB201339BB29A42E0D2B8F1000F7E
:10266000DDD15046FFF794FF386010B30746D6E738
:102670000122E5E71BF80400BB181871013292B281
:102680000134A4B21B2A01D88C42F3D38C420AD263
:102690005046FFF77DFF386078B14FF000080746DD
:1026A000BDE74246EEE73846F9E76FF00200BDE8C5
:1026B000F88F6FF00200BDE8F88F6FF00200BDE800
:1026C000F88F00002DE9F04190B10D4680460B7C5B
:1026D000ABB1C769D7B13E463C464CB36968606848
:1026E000FFF7A9FEB0B923682646F3B11C46F4E70C
:1026F000104B114A4FF46F71104800F0B1FF104BAE
:102700000D4A40F2BD310D4800F0AAFFC8F81C1078
:10271000BDE8F081BC4203D035602C60BDE8F0819B
:102720002C60C8F81C50BDE8F0812560BDE8F08140
:10273000BDE8F081C8480008B0470008804900089B
:102740009449000808B540B103780133DBB2037047
:102750001F2B01D90023037008BD034B034A40F22D
:102760005531034800F07CFF404900088C470008C1
:102770008049000808B503680B600160C38813B185
:10278000013BC38008BD034B034A40F22F6103485D
:1027900000F066FF10490008F4470008804900086F
:1027A00070B506460C4605E00D6806F10C00FFF713
:1027B000E1FF656061680029F6D1E38A6FF30903E0
:1027C000E3820020002170BD08B543687BB9C37D5A
:1027D000C3F38402013262F38603C375C38A6FF3C5
:1027E0000903C3821B0A6FF3C713C37508BD034BEC
:1027F000034A40F22641034800F032FF5C490008DA
:10280000BC470008804900082DE9F843089F4AB1F9
:102810004FEAD10E03EBD70301F0070107F00707DA
:102820000A4431E01A4B1B4A4FF4A6611A4800F0E3
:1028300017FF01F0070807F0070C4646E04538BFD0
:102840006646C6F10806541AA64228BF26464FF42B
:102850007F45F540EDB245FA0CF5CC0800EB0E09CA
:1028600019F8044004FA08F424FA0CF4E4B24FEA2C
:10287000D70813F808C084EA0C042C408CEA040C36
:1028800003F808C0314437449142D2D1BDE8F883FF
:10289000DC480008D44700088049000810B518B18A
:1028A0000246013900230CE0074B084A40F2C551AB
:1028B000074800F0D5FED05C545CD454505401332A
:1028C00001398B42F7D310BDB0490008E447000836
:1028D0008049000808B5FFF749FE034628B10022E9
:1028E000026042608260C2600261184608BD00005A
:1028F0002DE9F04F83B0009201930C9EBDF8345047
:1029000098B18B46824611F0604F15D1009B002B89
:1029100076D00DB1002E76D0072D14D94FF0800956
:102920004FF000084446474657E03D4B3D4A40F2D1
:1029300065313D4800F094FE3C4B3A4A40F2663126
:10294000394800F08DFE0AF10C00FFF7C3FF044682
:1029500000285BD02A463146083000F0D5FE6B1CBB
:102960002374009B1B7803F01F0343F0C00325442E
:102970002B724BF00043636021465046FFF7A2FEE6
:10298000012748E0002306E0305DCA1810720133C9
:10299000DBB20134A4B2062B01D8AC42F4D3AC4272
:1029A0002BD04FEA4812D2B249EA0209009A1278B3
:1029B00002F01F0249EA0209CA1882F808904BF097
:1029C00000424A6001330B745046FFF77BFE01372B
:1029D0003FB288F001084FF00009AC421BD00AF169
:1029E0000C00FFF777FF014698B1002CCAD1019A7D
:1029F0000A72130A43720223CDE74FF04009D0E771
:102A00006FF0010707E06FF0010704E06FF00207C5
:102A100001E06FF00207384603B0BDE8F08F00BF59
:102A2000C8480008A047000880490008EC48000892
:102A300030B589B004460D4620220021684600F0DA
:102A40006EFE04952046FFF791FD054650B16C4699
:102A50000FCC28606960AA60EB600FCC28616961C7
:102A6000AA61EB61284609B030BD10B504460C30B0
:102A7000FFF7DEFF034610B1A2690260A0611846AD
:102A800010BD38B504460D46806928B1FFF719FD21
:102A9000034650B1184638BD04F10C00FFF7C8FFDB
:102AA00003460028F6D0A061F4E729462046FFF748
:102AB000DCFF0346EEE70000F8B5D8B10E46154638
:102AC0001F4604462422002100F029FE0023237023
:102AD000A760069B6360079B23626A09B2F5803F8B
:102AE00001D34FF6FF7292B2314604F10C00FFF7AA
:102AF0002BFDF8BD024B034A4F21034800F0B0FD07
:102B0000C4480008404700088049000808B538B1AB
:102B100002785AB951B111F0800F07D1017008BD88
:102B2000054B064A7321064800F09AFD054B034AFF
:102B30007D21034800F094FDC84800084C47000878
:102B4000804900083C470008007870472DE9F04AAA
:102B500085B0BDF830409DF838B00F9EBDF840708C
:102B60009EB3BBF11F0F4BD8CDE902230546FFF7FB
:102B7000EBFF814670BB072F45D834F0030345D1E6
:102B80003A4631464FF6FF70FFF7D2FC20F00100C5
:102B90004004400C400240EA0B6B240204F44074F1
:102BA0004BEA040444EA09094FF6FF7301970096C3
:102BB0000D9A49462846FFF79BFE04460D98FFF7FD
:102BC000C1FD204605B0BDE8F08A002FC9D06FF0E6
:102BD0000100F7E7240244EA0B6444EA0009072FE6
:102BE0000BD9DDE902234FF6FF70FFF788FC3A4668
:102BF0003146FFF79DFC0346D8E74FF6FF73D5E754
:102C00006FF00100DEE76FF00300DBE76FF001001B
:102C1000D8E72DE9F04F83B09DF838409DF83CA0EF
:102C2000109EBDF8447016B31F2C3AD890469946B2
:102C30008B460546FFF788FFB0B39DF830301B0484
:102C400043EA046444EACA3444EA0B24044344F0EB
:102C50008004072F10D942464B464FF6FF70FFF70E
:102C60004EFC3A463146FFF763FC034606E0002F70
:102C7000DAD06FF001000CE04FF6FF730197009679
:102C80000D9A21462846FFF733FE0446BAF1010F9C
:102C900002D003B0BDE8F08F0D98FFF753FD20463A
:102CA000F7E76FF00100F4E76FF00300F1E7C069A8
:102CB00008B1043070470020704708B5C1690B683F
:102CC000C3610C30FFF756FD08BD0000F0B585B0BC
:102CD000002830D00E4614460546002B32D0402A3C
:102CE00037D8002A3CD0002202920392012C3ED019
:102CF000082C41D81B788DF808300127002F4ED0C2
:102D0000FFF7E6FB002851D114F0070F0AD004ABFF
:102D100003EBD40111F8083C624202F00702934031
:102D200001F8083C00962B462246002102A8FFF736
:102D30006BFD05B0F0BD204B204A4FF42A712048AE
:102D400000F08EFC1F4B1D4A40F2A9211C4800F0E8
:102D500087FC1D4B194A40F2AD21194800F080FC58
:102D6000194B164A40F2B321154800F079FC1B7844
:102D70008DF808302746C1E7102C04D81B88ADF821
:102D800008300227BAE7202C03D81B6802930427D7
:102D9000B4E7D3E90023CDE902230827AEE70B4BC4
:102DA000064A40F2D321064800F05AFC394602A8F0
:102DB000FFF774FDA8E700BF004800087847000847
:102DC000804900081C4800083C47000834480008B7
:102DD00070B506460C4605E00D6806F10C00FFF7DD
:102DE000C9FCE560E1680029F6D10023E360A36037
:102DF0002361A38270BD00002DE9F04F93B0074618
:102E00000D46CDE902230C682046FFF73DFB064640
:102E1000022806D0C4F30628002C05DB13B0BDE859
:102E2000F08F4FF00008F7E714F0C04FF6D195F897
:102E30000C90B9F1000FF1D0022E04D03846FFF704
:102E400083FE8045EAD1C4F30463069304F07F0A4D
:102E50002046FFF725FB079040EA064343EA8A43F2
:102E600043EA486809F1FF39A94499F804905FEAF8
:102E7000D91B1CD012A90022002361E908237C6819
:102E8000CDF800A0334602463846A0470028C5D0FA
:102E900041463846FFF7F5FD04460028BED0DDE97F
:102EA0000A234FF6FF70FFF72AFBA08206E0414697
:102EB000B869FFF706FB04460028AFD03CB3D4E95D
:102EC0000223DDE90201CDE90423801A61EB03014D
:102ED000CDE90801E07D09F01F084146C0F38400F8
:102EE000FFF7A0FA8646DDE90423134318D0A84A69
:102EF0000023DDE908018B4208BF824254D3BBF1B5
:102F0000000F53D0BEF1010F08DD012309E0A14BF2
:102F1000A14A4FF49D71A14800F0A2FB002300E0FC
:102F20000123002B44D1BBF1000F02D019F0400F58
:102F300053D1C9F34013E27DB3EBD21F7FF46EAFE0
:102F4000C2F3840398457FF469AFBBF1000F76D0DC
:102F500019F0400F73D12B7B032B7FF65FAFDDE9B8
:102F60000223C4E90223AE1D2B7B033BDBB23246B6
:102F7000214607F10C00FFF714FB002857DB2B79E3
:102F80006A7943EA022323832A7B033AD2B2314689
:102F9000A08AFFF7CDFAA082E37DDA43C2F3C01224
:102FA00062F3C713E37539E70123BAE70023B8E7F3
:102FB000E37D69F386036FF3C713E3752146384653
:102FC000FFF7EEFBBBF1000FADD1E37DC3F384024D
:102FD000013262F38603E37520E7DDE90223C4E9E9
:102FE0000223202200210AA800F099FBDDE9022338
:102FF000CDE90A232B1D0C932B7B013BDBB2ADF8F3
:103000003C30BDF81C30ADF83E308DF840608DF896
:1030100041809DF818308DF842308DF843A0BB6890
:103020000AA9384698472046FFF7CEFBF6E6214628
:103030003846FFF7B5FB2046FFF7C6FBEEE6BBF1CF
:10304000000F02D119F0400F09D0297B0139C9B214
:10305000E28AC2F30902052A61D8002325E02E1D69
:103060002B7B013BDBB23246214607F10C00FFF718
:1030700098FA002808DB2A7B013AD2B23146A08AAE
:10308000FFF756FAA08287E721463846FFF788FB0C
:103090002046FFF799FBC1E6E81890F804E0A01875
:1030A00080F81AE001320133DBB2052A01D88B42E5
:1030B000F2D3DDE902BCCDE90ABC04F11A020C929C
:1030C00062680D928B425CD22B4404330E93E38AE8
:1030D000C3F309031944ADF83C10BDF81C30ADF83A
:1030E0003E308DF840608DF841809DF818308DF8A5
:1030F00042308DF843A0002363602A7B013A291DEA
:10310000A08AFFF715FAA082238B98423BD00AA928
:103110003846FFF75DFE2046FFF756FB7EE6606807
:1031200010B14FF0060E04E00023C2E70EF11C0EB2
:1031300018460368002BF9D128B1A2EB0E021B2A16
:1031400008D8002318E0164B134A4FF4D8711348DF
:1031500000F086FA134B104A40F2B3110F4800F00A
:103160007FFA05EB030E9EF804C000EB020E8EF80A
:1031700004C001320133DBB21B2A9AD88B42F0D350
:1031800097E70023A2E7BB680AA938469847BEE73D
:1031900080841E00484800086447000880490008F1
:1031A000604800087848000830B420F0604521F0FD
:1031B0006044CB0FB3EBD07F0FD0002809DB002990
:1031C00009DBA54218D0A5422CBF0020012030BC4D
:1031D0007047AD0CF3E7A40CF3E7C0F38072C1F3C2
:1031E0008071A54204D0A5422CBF00200120EEE74B
:1031F0008A42F8D00846EAE71846E8E7021E06DBEE
:10320000500512F0804F01D040F002007047D3000B
:1032100043F00400F5E710F0040F07D1430D10F060
:10322000020F01D043F0804318467047C30843F0B3
:103230000043F4E70022B2F57A7F08D2436803F036
:103240000103DBB28B4204D0013292B2F3E70020DB
:1032500070470120704700000D4B9B6913F0700F01
:1032600015D000220A4B9A610A49D1E902230132A2
:1032700043F10003C1E90223074B1B7823B9044B38
:103280009B6913F0040F02D0044A014B9A60704707
:10329000006400401012002009120020808080008D
:1032A000022900F2B380002800F0B38038B503880B
:1032B000002B00F0B180B3F5806F00F2B08003798D
:1032C000002B00F0AF80042B00F2AF808378002B3E
:1032D00000F0AE80102B00F2AE80C378002B00F01F
:1032E000AD80082B00F2AD800C460546564A0023FF
:1032F000136053609360D360022914BF0021012141
:10330000524A117052484361036823F0020303607C
:10331000036843F0010303600121FFF78BFF0028DE
:1033200057D061224A4B1A602B79013B1B0603F0F0
:103330004073AA78013A120402F470221343EA7827
:10334000013A120502F4E00213432A88013AC2F35B
:1033500009021343012C43D0002213433C4AD3619A
:103360005369002B3FD13A48036823F001030360FF
:103370000021FFF75FFF00283BD0354AD2F800322A
:1033800023F47C5323F00E0343F4606343F0010302
:10339000C2F80032D2F80032C3F305230E2B2FD12E
:1033A0002B4B0020C3F804026FF07042C3F80C22CC
:1033B000284AC3F81422C3F84002C3F84402012289
:1033C000C3F81C22D3F8002222F00102C3F8002225
:1033D00038BD4FF400421E4B1A606FF47A7038BD4E
:1033E0004FF00042B9E71C4B1C4AE8211C4800F092
:1033F00037F94FF40042164B1A60A0F2EA3038BD9C
:10340000184B164AFE21164800F02AF96FF0010009
:1034100070476FF0010070476FF0010038BD6FF02A
:10342000010038BD6FF0010038BD6FF0010038BDFC
:103430006FF0010038BD6FF0010038BD6FF0010082
:1034400038BD6FF0010038BD1012002009120020B5
:1034500000640040AAAAAA0AF0490008CC49000862
:10346000284A0008504A0008002875D070B582B07C
:103470000546036813F0005F71D1FFF7EDFE394B8D
:103480009B6803F0E053B3F1E05F5CD0354B9A6882
:10349000C2F380628DF804209A68C2F3C0628DF88E
:1034A00005209B68C3F300738DF806300024FF26C7
:1034B00002E026460134E4B2022C13D802AB2344C6
:1034C00013F8043C002BF4D104F118031B01254A26
:1034D000D058FFF7A0FE01462868FFF765FE0028D8
:1034E000E8D127E0FF2E27D0022E2ED8340104F198
:1034F000804404F5CB442B7B6360EA7AAB7A1B04EF
:1035000043EA02636A7A43EA02232A7A1343E360B6
:10351000EA79AB791B0443EA02636A7943EA02233E
:103520002A791343A3602868FFF768FE40F0010082
:103530002060012002B070BD0B4B0C4A40F25D11BF
:103540000B4800F08DF80026CEE70A4B074A40F200
:103550006711074800F084F86FF0010070470648D3
:10356000E8E700BF006400409C4A0008DC4900080E
:10357000284A0008AC4A000815FCFFFF002840D08C
:1035800070B50646FFF768FE0023012B37D81E4CA6
:1035900004EB03141D4A52F823502A6812F0030F5B
:1035A00001D10133F1E72B6813F0100F07D0184950
:1035B000D1E90023013243F10003C1E9002320686F
:1035C000FFF729FE3060636803F00F033373A268CE
:1035D000E3683271C2F307217171C2F30741B1711F
:1035E000120EF2713372C3F307227272C3F30742F1
:1035F000B2721B0EF37238232B60012070BD0020C5
:1036000070BD6FF001007047B0650040C44900080C
:1036100010120020002103E00B4B5B584350043193
:103620000A480B4B42189A42F6D30A4A02E000239A
:1036300042F8043B084B9A42F9D3FDF767FF00F0CC
:103640003FF8FCF75FFE7047984B00080000002031
:103650007400002078000020C0120020FEE7000067
:103660001FB51C46094B05461B68D86852B1084B6C
:103670008DE80A0002922B462246064900F00EF819
:1036800000F0ECFB044B1A46F2E700BF10000020EC
:10369000BC4A0008C94A0008F74A00080EB403B53E
:1036A000014603AB054853F8042B0068019300F072
:1036B00067F802B05DF804EB03B07047100000201B
:1036C00070B500250C4E0D4CA41BA410A54209D1C9
:1036D00000F0B6FF00250A4E0A4CA41BA410A54218
:1036E00005D170BD56F8253098470135EEE756F8FC
:1036F000253098470135F2E7904B0008904B0008C1
:10370000904B0008944B000810B5431E0A449142A8
:1037100000D110BD11F8014B03F8014FF7E7034644
:103720000244934200D1704703F8011BF9E7936804
:1037300010B4013B002B936008DA9469A34202DBCA
:10374000CBB20A2B02D110BC00F0C8BA1368581CC7
:1037500010601970C8B210BC7047F8B506460F4625
:103760001446D518AC4201D1002007E03A4614F8BF
:10377000011B3046FFF7DBFF431CF3D1F8BD00000F
:103780002DE9F04F9DB00C4617460393064618B13D
:1037900083690BB900F05CFC7C4B9C4257D1746888
:1037A000A38918075DD52369002B5AD000230993FC
:1037B00020238DF8293030234FF0010B8DF82A306B
:1037C000B846454615F8013B002B55D1B8EB070A22
:1037D0000BD053463A4621463046FFF7BEFF013034
:1037E00000F0C480099B5344099398F80030002BE3
:1037F00000F0BC8000234FF0FF3204930793059242
:1038000006938DF853301A9305222978604800F00A
:103810000DFD05F10108049B002831D1D90644BFF4
:1038200020228DF853201A0744BF2B228DF85320F5
:103830002A782A2A2CD000210A20079AA84698F82C
:1038400000300135303B092B6DD971B326E0514B67
:103850009C4201D1B468A3E74F4B9C4208BFF46877
:103860009EE72146304600F08BFA00289ED04FF0AC
:10387000FF301DB0BDE8F08F252BA7D0A846A0E7EC
:10388000434A4546801A0BFA00F018430490BBE700
:10389000039A111D12680391002A01DB079204E0CC
:1038A000524243F002030792049398F800302E2B03
:1038B00010D198F8013008F101012A2B37D1039B70
:1038C00008F102081A1D1B680392002BB8BF4FF0C5
:1038D000FF330593314D032298F80010284600F07D
:1038E000A5FC40B14023401B03FA00F0049B08F103
:1038F00001080343049398F800100622284808F1B1
:1039000001078DF8281000F091FC002834D0254BD9
:1039100003BB039B073323F0070308330393099B7F
:103920004B4409934CE700FB0232012186E7002358
:103930000A2518460593884698F800200131303A48
:10394000092A03D9002BC5D00590C3E705FB002049
:103950000123F0E703AB00932246134B04A9304642
:10396000AFF30080B0F1FF3F8146D8D1A3895B0659
:103970003FF57DAF09987CE703AB009322460A4BE5
:1039800004A9304600F08AF8ECE700BF504B00086D
:10399000FC4A0008704B0008304B0008024B00083E
:1039A000064B0008000000005B3700082DE9F047D7
:1039B00091461F468A680B6906469342B8BF134674
:1039C000C9F8003091F843200C46DDF8208012B190
:1039D0000133C9F800302368990642BFD9F8003096
:1039E0000233C9F80030256815F0060507D104F147
:1039F000190AE368D9F800209B1A9D422ADB94F843
:103A000043302268003318BF012392062FD404F1FB
:103A1000430239463046C047013022D02368E5686A
:103A200003F00603042B18BF0025D9F800204FF03F
:103A3000000908BFAD1AA368226908BF25EAE57529
:103A40009342C4BF9B1AED181A344D451BD1002078
:103A5000BDE8F0870123524639463046C047013061
:103A600003D14FF0FF30BDE8F0870135C1E73020CA
:103A7000E11881F843005A1C94F84510224402339F
:103A800082F84310C3E70123224639463046C04737
:103A90000130E6D009F10109D7E700002DE9F04334
:103AA00017460A7E85B06E2A984606460C460C9B41
:103AB00001F1430E00F0BC801AD8632A2ED00AD838
:103AC000002A00F0C880582A00F08A8004F14205DC
:103AD00084F842202AE0642A01D0692AF6D12168BC
:103AE0001A6811F0800F23D0111D1960136827E0A8
:103AF000732A00F0B48008D86F2A2AD0702AE5D142
:103B00000A6842F020020A6003E0752A21D0782A70
:103B1000DCD178226F4984F8452064E01A6801F10D
:103B20004205111D1960136884F842300123A3E097
:103B300011F0400F02F104011960D7D0B2F9003042
:103B4000002B03DA2D225B4284F8432062490A22CB
:103B500017E02068196810F0800F03D0081D186066
:103B60000B6806E010F0400F01F104001860F7D078
:103B70000B886F2A14BF0A2208225749002084F8B4
:103B800043006568002DA560C0F29C80206820F08D
:103B900004002060002B3FD1002D40F09580754639
:103BA000082A0BD12368DA0708D5236962689A428C
:103BB000DEBF302305F8013C05F1FF35AEEB050310
:103BC0002361CDF800803B4603AA21463046FFF72B
:103BD000EDFE013055D14FF0FF3005B0BDE8F08368
:103BE00081F845203C492268186812F0800F00F1E6
:103BF00004051D6001D0036802E05506FBD503886B
:103C0000D00744BF42F0200222601BB9226822F094
:103C1000200222601022B1E77546B3FBF2F002FBEE
:103C20001033CB5C05F8013D03460028F5D1B7E71A
:103C300008681A6810F0800F496904D0101D1860D8
:103C40001368196007E010F0400F02F104001860DB
:103C50001368F6D01980002375462361B1E71A680E
:103C6000111D1960156800216268284600F0DEFA0F
:103C700008B1401B606063682361002384F843300F
:103C80009FE723692A4639463046C0470130A2D013
:103C900023689B0707D5002504F11909E368039AF7
:103CA0009B1A9D4205DBE068039B9842B8BF18460B
:103CB00093E701234A4639463046C04701308AD04F
:103CC0000135EBE7002BA7D10B7804F1420584F80E
:103CD000423065E71E4B00080D4B0008F8B50E4654
:103CE0001446054618B183690BB900F0B1F9214BB0
:103CF0009C422AD16C68A369A360A3891A072ED5B8
:103D0000236963B323692068F6B2C01A6369374632
:103D1000984204DB2146284600F030F928BBA3680E
:103D20000130013BA36023685A1C22601E70636946
:103D3000984204D0A389DB0719D50A2E17D1214652
:103D4000284600F01BF990B10FE00B4B9C4201D1CB
:103D5000AC68D0E7094B9C4208BFEC68CBE7214632
:103D6000284600F00DF80028CCD04FF0FF37384639
:103D7000F8BD00BF504B0008704B0008304B0008E6
:103D8000324B70B51D6806460C4625B1AB6913B9B8
:103D9000284600F05DF92E4B9C420FD16C68B4F9B7
:103DA0000C309AB215072CD4D00611D409223260F7
:103DB00043F04003A3814FF0FF3070BD254B9C4280
:103DC00001D1AC68EBE7244B9C4208BFEC68E6E706
:103DD000510712D5616B41B104F14403994202D0FD
:103DE000304600F031FA00236363A38923F02403F3
:103DF000A3810023636023692360A38943F0080340
:103E0000A38123694BB9A38903F42073B3F5007F21
:103E100003D02146304600F0C9F9A28912F001030F
:103E20000CD00023A36063695B42A361236953B98B
:103E3000B4F90C3013F08000BAD170BD920758BFAE
:103E40006369A360F2E70020F7E700BF10000020DD
:103E5000504B0008704B0008304B000808B5062096
:103E600000F0D4FA012000F0E9FB00008A892DE976
:103E7000F041054610070C465AD44B68002B05DC70
:103E80000B6C002B02DC0020BDE8F081E66A002EFE
:103E9000F9D0002312F480522F682B6033D0606D6C
:103EA000A3895A0705D56368C01A636B0BB1236CED
:103EB000C01A00230246E66A216A2846B047431C1E
:103EC000A38906D129681D294BD82B4ACA40D60799
:103ED00047D5002262602269D904226004D5421CC1
:103EE00001D12B6803B96065616B2F600029CAD0CE
:103EF00004F14403994202D0284600F0A5F90020BD
:103F00006063BDE8F081216A01232846B047411C67
:103F1000C6D12B68002BC3D01D2B01D0162B01D18D
:103F20002F60B0E7A38943F04003A381BDE8F0818F
:103F30000F69002FA7D0930718BF00230E6808BF92
:103F40004B69A6EB07080F608B60B8F1000F9ADD94
:103F500043463A46216A2846A66AB047002807DC4D
:103F6000A38943F04003A3814FF0FF30BDE8F08107
:103F70000744A8EB0008E8E70100402038B50B69CA
:103F800005460C46DBB118B183690BB900F060F847
:103F90000C4B9C4209D16C68B4F90C307BB12146C2
:103FA0002846BDE83840FFF761BF074B9C4201D16E
:103FB000AC68F1E7054B9C4208BFEC68ECE70020D9
:103FC00038BD00BF504B0008704B0008304B000854
:103FD000014900F0A9B800BF7D3F0008002310B5DB
:103FE000044603604360836081814366C28103614C
:103FF00043618361194608225C30FFF790FB054B53
:1040000024626362044BA362044BE362044B2363A8
:1040100010BD00BF45440008674400089F440008E5
:10402000C344000870B568254A1E55430E4605F185
:10403000740100F055F9044640B1002180E84200C7
:104040000C30A06005F16802FFF769FB204670BDE7
:10405000836910B5044633BB8364C3640365124BA4
:10406000124A1B688262984204BF0123836100F0F8
:104070001FF86060204600F01BF8A060204600F0AA
:1040800017F80022E06004216068FFF7A7FF012213
:104090000921A068FFF7A2FF02221221E068FFF7C2
:1040A0009DFF0123A36110BDF84A0008D13F00081D
:1040B000F8B51C4B07461E68B36913B93046FFF7C5
:1040C000C7FF4836B4687368013B03D5336833B122
:1040D0003668F7E7B4F90C506DB16834F4E70421A1
:1040E0003846FFF79FFF30600028F1D10C230446CB
:1040F0003B602046F8BD4FF6FF73E3810123656600
:10410000A3812560A560656025616561A5610822C0
:10411000294604F15C00FFF702FB6563A563A56413
:10412000E564E6E7F84A00082DE9F8438046894649
:10413000002600F1480414B93046BDE8F883A568AC
:104140006768013F01D52468F5E7AB89012B07D9E2
:10415000B5F90E30013303D029464046C84706431F
:104160006835EEE770B50E46B1F90E1090B0002933
:1041700014461D4607DA00232B60B3891A0610D4B3
:104180004FF480630EE001AA00F0C2F90028F2DBD0
:10419000029A02F47042A2F500535A425A412A6030
:1041A000EEE740230020236010B070BD8B8973B50B
:1041B0009D0706460C4607D504F14703236023619B
:1041C0000123636102B070BD01AB6A46FFF7CAFF0D
:1041D00000990546304600F083F848B9B4F90C3030
:1041E0009A05EFD423F0030343F00203A381E3E72E
:1041F0000D4BB362A389206043F08003A381009B31
:1042000020616361019B5BB1B4F90E10304600F090
:1042100091F928B1A38923F0030343F00103A3819B
:10422000A3891D43A581CDE7D13F000810B5C9B2D0
:1042300002449042034601D1002010BD1C78013099
:104240008C42F6D1184610BD38B50546002943D03A
:1042500051F8043C0C1F002BB8BFE41800F08CF997
:104260001E4A1368104633B9636014602846BDE8DF
:10427000384000F082B9A3420BD9216862189342FA
:1042800001BF1A685B685218226063600460EDE742
:1042900013465A680AB1A242FAD919685818A042BE
:1042A0000BD120680144581882421960DED1106891
:1042B0005268014419605A60D8E702D90C232B6078
:1042C000D4E7206821188A4201BF11685268091892
:1042D000216062605C60C9E738BD00BF2012002029
:1042E00070B5CD1C25F0030508350C2D38BF0C2505
:1042F000002D064601DBA94203D90C2333600020C0
:1043000070BD00F039F9234A1468214691B9224C56
:1043100023681BB9304600F041F82060294630463A
:1043200000F03CF8431C26D10C233046336000F0EB
:1043300024F9E4E70B685B1B1AD40B2B0FD90B6035
:10434000CC18CD50304600F018F904F10B00231DB5
:1043500020F00700C31A1BD05A42E25070BD8C42B5
:104360000BBF63684B681360636018BF0C46E9E7D6
:104370000C464968CAE7C41C24F00304A04205D0D7
:10438000211A304600F00AF80130CDD02560D9E777
:1043900070BD00BF201200202412002038B5002379
:1043A000054C05460846236000F032F9431C02D153
:1043B000236803B12B6038BDBC1200201F2938B51B
:1043C00004460D4604D9162303604FF0FF3038BD74
:1043D000426C12B152F821304BB9204600F030F84F
:1043E0002A4601462046BDE8384000F017B8012BA8
:1043F0000AD0591C03D116230360012038BD0024C4
:10440000284642F825409847002038BD024B014617
:104410001868FFF7D3BF00BF1000002038B5002395
:10442000064C054608461146236000F0D9F8431CA7
:1044300002D1236803B12B6038BD00BFBC1200203D
:1044400000F0BEB810B50C46B1F90E1000F096F8A9
:104450000028ABBF636DA3891B1823F48053ACBF46
:104460006365A38110BD2DE9F0411F468B89054688
:10447000DB050C46164605D502230022B1F90E10C5
:1044800000F068F8A389324623F48053A381B4F97D
:104490000E103B462846BDE8F04100F017B810B5B5
:1044A0000C46B1F90E1000F055F8431CA38915BF56
:1044B000606523F4805343F48053A38118BFA38124
:1044C00010BDB1F90E1000F013B8000038B5054664
:1044D000084611460022054C22601A4600F0A6F854
:1044E000431C02D1236803B12B6038BDBC120020ED
:1044F00038B50023054C05460846236000F050F807
:10450000431C02D1236803B12B6038BDBC120020CC
:1045100038B50023064C054608461146236000F0D6
:1045200047F8431C02D1236803B12B6038BD00BF9C
:10453000BC12002038B50023054C05460846236010
:1045400000F046F8431C02D1236803B12B6038BD4C
:10455000BC12002038B50546084611460022054C1D
:1045600022601A4600F044F8431C02D1236803B1CC
:104570002B6038BDBC1200207047704738B5054627
:10458000084611460022054C22601A4600F038F811
:10459000431C02D1236803B12B6038BDBC1200203C
:1045A0005822024B4FF0FF301A607047BC120020B7
:1045B0005822024B4FF0FF301A607047BC120020A7
:1045C0005822024B4FF0FF301A607047BC12002097
:1045D0005822024B00201A60704700BFBC12002016
:1045E0005822024B4FF0FF301A607047BC12002077
:1045F0005822024B4FF0FF301A607047BC12002067
:104600005822024B4FF0FF301A607047BC12002056
:10461000044A05491368002B08BF0B461844106074
:104620001846704728120020C01200205822024B62
:104630004FF0FF301A607047BC120020FEE700BF49
:10464000F8B500BFF8BC08BC9E467047F8B500BF7F
:08465000F8BC08BC9E4670474F
:10465800A8460008F1010008000000000000000062
:1046680000010000A04600087D01000800000000CD
:104678000000000080000000020304050607080986
:104688000A0B0C0D0E0F1010010200005372632F5D
:104698006D61696E2E6300005461736B30320000E7
:1046A8005461736B3031000000000000000000000E
:1046B80001020304060708090000000001020304C0
:1046C80049444C450000000063616E6172645354B4
:1046D8004D3332436F6D7075746543414E54696D47
:1046E800696E677300000000736B7979752E6E6FC1
:1046F80064652E64656D6F006273315F6273325F4B
:1047080073756D203E206273310000006C6962632E
:10471800616E6172642F647269766572732F737447
:104728006D33322F63616E6172645F73746D3332FF
:104738002E6800003000000063616E617264496E8B
:104748006974000063616E6172645365744C6F63D1
:10475800616C4E6F646549440000000063616E61DE
:10476800726448616E646C6552784672616D65006A
:1047780063616E617264456E636F64655363616CF7
:1047880061720000696E6372656D656E7454726162
:104798006E73666572494400656E7175657565541A
:1047A800784672616D6573007075736854785175D9
:1047B8006575650070726570617265466F724E65E9
:1047C80078745472616E736665720000636F7079F5
:1047D80042697441727261790000000073776170F8
:1047E800427974654F72646572000000667265658F
:1047F800426C6F636B00000064657374696E61746A
:10480800696F6E20213D202828766F6964202A2947
:104818003029000076616C756520213D20282876B6
:104828006F6964202A293029000000007374645FCE
:10483800627974655F6C656E677468203E2030002D
:1048480072785F737461746520213D202828766F23
:104858006964202A29302900626C6F636B20213D2E
:10486800202828766F6964202A2930290000000052
:104878006F66667365745F77697468696E5F626C8A
:104888006F636B203C2028333255202D205F5F62F8
:1048980075696C74696E5F6F66667365746F6620A0
:1048A8002843616E617264427566666572426C6F18
:1048B800636B2C2064617461292900006F75745F33
:1048C800696E7320213D202828766F6964202A2983
:1048D800302900007372635F6C656E203E2030558E
:1048E800000000002863616E5F696420262030782C
:1048F80031464646464646465529203D3D20636199
:104908006E5F696400000000616C6C6F6361746FB6
:10491800722D3E737461746973746963732E637561
:104928007272656E745F75736167655F626C6F63E1
:104938006B73203E203000007472616E736665727E
:104948005F696420213D202828766F6964202A2920
:104958003029000073746174652D3E627566666562
:10496800725F626C6F636B73203D3D202828766F01
:104978006964202A293029006C696263616E61725A
:10498800642F63616E6172642E6300006974656DE3
:104998002D3E6672616D652E646174615F6C656E33
:1049A800203E2030000000006461746120213D2019
:1049B8002828766F6964202A293029000C64004071
:1049C8001064004063616E61726453544D33324920
:1049D8006E69740063616E61726453544D3332546E
:1049E80072616E736D69740030203D3D2028287611
:1049F8006F6C6174696C652043616E6172645354B5
:104A08004D333243414E547970652A293078343019
:104A180030303634303055292D3E4945520000009B
:104A28006C696263616E6172642F64726976657223
:104A3800732F73746D33322F63616E6172645F73A9
:104A4800746D33322E63000028282828766F6C6135
:104A580074696C652043616E61726453544D3332DE
:104A680043414E547970652A2930783430303036D5
:104A780034303055292D3E464D52203E3E20385583
:104A880029202620307833465529203D3D203134D1
:104A980055000000212243414E205052494F2049E1
:104AA8004E56220074785F6D61696C626F78203CA5
:104AB800203300002C2066756E6374696F6E3A208F
:104AC80000617373657274696F6E202225732220EA
:104AD8006661696C65643A2066696C652022257395
:104AE800222C206C696E65202564257325730A00C5
:104AF80014000020232D302B2000686C4C006566C4
:104B08006745464700303132333435363738394116
:104B1800424344454600303132333435363738392C
:104B28006162636465660000000000000000000028
:104B3800000000000000000000000000000000006D
:104B4800000000000000000000000000000000005D
:104B5800000000000000000000000000000000004D
:104B6800000000000000000000000000000000003D
:104B7800000000000000000000000000000000002D
:084B8800000000000000000025
:044B900035010008E3
:044B94001101000803
:104B9800010000001000000000A24A04AAAAAAAA64
:104BA8001400002000000000504B0008704B000863
:104BB800304B00080000000000000000000000006A
:104BC80000000000000000000000000000000000DD
:104BD80000000000000000000000000000000000CD
:104BE80000000000000000000000000000000000BD
:104BF80000000000000000000000000000000000AD
:044C080000000000A8
:0400000508003615A4
:00000001FF
